:080000006F60403B00000000AE
:10000800B71402409305E0408CC483A20400370370
:100018000001B3E2620023A0540083A30400370E5A
:100028000002B3F3C301E38A03FE83AE8400370FF3
:100038000080B3EEEE0123A4D401894F23A2F4017A
:1000480003A94400A14933793901E30B09FE1305DB
:10005800400F9705FDFF9385E5FA1766FDFF130628
:10006800662663FAC5008322050023A05500110502
:100078009105E3EAC5FE1765EDDF1305253C976595
:10008800FDFF938525241766FDFF1306A62363FA53
:10009800C5008322050023A0550011059105E3EA58
:1000A800C5FE1765EDDF13056539970500009385D3
:1000B80065051386418463FAC5008322050023A0E1
:1000C800550011059105E3EAC5FE17650100130502
:1000D8006581978502009385A5D16377B5002320B4
:0C00E80005001105E36DB5FE82800000EC
:1000F4000000000000000000DA021020DC021020E2
:10010400000000005807102000000000000000005C
:1001140058071020580710200000000000000000BD
:10012400580710205807102058071020000000001E
:10013400580710205807102058071020580710207F
:1001440000000000000000000000000000000000AB
:10015400000000000000000000000000000000009B
:1001640058071020000000000000000000000000FC
:10017400580710205807102058071020580710203F
:10018400580710205807102058071020580710202F
:10019400580710205807102058071020580710201F
:1001A400580710205807102058071020580710200F
:1001B40058071020580710205807102058071020FF
:1001C40058071020580710205807102058071020EF
:1001D4008C2710205807102058071020580710208B
:1001E40058071020580710206E381020843710202C
:1001F40058071020580710205807102058071020BF
:1002040058071020580710205807102058071020AE
:10021400580710205807102058071020580710209E
:10022400580710205807102058071020580710208E
:10023400580710205807102058071020580710207E
:10024400580710205807102058071020580710206E
:10025400580710205807102058071020580710205E
:1002640058071020C83610205807102058071020AF
:10027400580710205807102058071020580710203E
:10028400580710205807102058071020580710202E
:10029400580710205807102058071020580710201E
:1002A400580710205807102058071020580710200E
:1002B40058071020580710205807102058071020FE
:1002C40058071020580710205807102058071020EE
:1002D4004A1E1020580710205807102058071020D5
:1002E400580710205807102000000000580710205D
:1002F40058071020000000000000000058071020DC
:1003040000000000000000005807102058071020CB
:10031400580710205807102058071020580710209D
:10032400580710205807102058071020580710208D
:10033400580710205807102058071020580710207D
:1003440058071020397101436EC619A03971415301
:100354006AC866CA62CC5ECE19A0397101535AD0FC
:1003640056D252D44ED64AD826DA22DC06DE3301DF
:100374006140828241114AC026C222C406C68282DA
:10038400B24D4101024D924C224CB24B4101024B01
:10039400924A224AB2494101024992442244B2405B
:1003A400410182802A8309CA8383050023007300E4
:1003B4007D16050385056DFA82802A8311C6230004
:1003C400B3007D16050365FE828001A0B707EFBE6A
:1003D40037E700E0938707083CC701A0EFF21FF757
:1003E40079713D2AFD24EF00705F716513050520C6
:1003F400EF007068375510201305455CEF40200C62
:10040400B727132083A54789375510201305855E28
:10041400EF301077375510201305C55FEF40200AE1
:100424003755102013054563EF4060093707030073
:10043400B7E700E037F400E023A2E772130404D026
:100444001C488545014593E707021CC8EF001010BE
:100454001C4885453705001093E707011CC8EF00C9
:10046400303B375510201305C564EF4040058945DE
:100474000145EF001011375510201305C567EF40F3
:1004840000040145EF00100FEF3090313755102074
:100494001305456AEF40A002375510201305C56CBB
:1004A400EF40E001B7870C20214798A31307000011
:1004B400D8C383AA818303A9018383A94183B76431
:1004C4001420375B1020B75B102083A78182A9C753
:1004D40083A7048E130740068507B3F6E70223A01B
:1004E400F48E9DEAB3D7E7021306400293050B5A34
:1004F400680013F47700B7870C2080A323A2570168
:1005040055351C183344F4208325C4FD4A86CE8611
:1005140013850B71EF30D0662945EF00705275B723
:10052400EFF25FE5B71702409843B7065C3041111C
:100534001367170098C3D84337140240758FD8C384
:100544005C40B18BF5FF5C403707A76A7D17939732
:1005540067495CC01C449397F7491CC41C40F98F3D
:100564001CC01C4037C7FF0F939727491CC01C446D
:10057400F98F1CC41C443707600C93E747001CC464
:10058400B707FF005CC41C58F98F1CD85C5837E7C8
:10059400F0FF13070708F98F5CD85C583707080089
:1005A40013070702D98F5CD86D2302C202C402C6A6
:1005B4001C40B716024037060200939707293707F5
:1005C40000011CC09C42F18F3EC4924785073EC285
:1005D400A24781E79247E397E7FEB71702409C439F
:1005E40037070200F98FE5C785473EC42247854790
:1005F400631DF70CB71702409847F1769386F60F00
:10060400019B98C798471367070198C79847758F48
:1006140098C798479306000298C798471377F7F14D
:1006240098C798471367070298C798471377070E28
:10063400E31DD7FE9843B70600021317872998C312
:10064400B71702409843758F75DF9847B706009037
:10065400FD161317F74998C79847758F98C7B706BB
:100664000070B71702409847758F75FFD843B706D7
:10067400FDFFFD161377F7F0D8C3D843D8C3D8438A
:10068400758FD8C3D843B726024013171729D8C388
:1006940098423AC63247719B3AC6324713671700ED
:1006A4003AC6324798C29847B71602401317F7293B
:1006B40098C7D843719BD8C3D84313672700D8C3BE
:1006C4002147DC42B18BE39EE7FE4101F1B102C454
:1006D40031BFB7170240D44398472146B18A639487
:1006E400C602B7060070758F370600506309C71439
:1006F4006360E6021DC7B7479C1CB706004093879A
:1007040007806307D706B7877D01938707848DA089
:10071400370600606306C710B767730793870794AB
:10072400CDB79047944798479305000A93F6060E71
:1007340021831377F7037D8A05076398B608B767A3
:10074400CD1D9387075033D7E702B707132093874C
:100754000712B2979C239146B387E7026309D60038
:10076400856693860654B3D6C600858A91C285836E
:1007740037271320232CF7883716024054423707B3
:100784001320130707119182BD8A36971823B726C1
:10079400132093860689B3D7E70058424166418304
:1007A4000D8B36971823B766142033D7E70023A29E
:1007B400E68EB7F600E083A606D1F18E91E2BA8701
:1007C40037271320232AF78882809305000E63922B
:1007D400B602D45BB707132093870710C182B6977C
:1007E4009C23B7867D0193860684B387D7028583CD
:1007F40099BF930700086397F600B7479C1C93873B
:10080400078091B79307000C6397F600B7677307E7
:10081400938707940DBFB7877D019387078425B716
:10082400D85BB7071320938707104183BA979C239B
:1008340037877D0113070784B387E7020DBFB767C6
:10084400CD1D938707502DB701A0011106CE22CCF0
:100854000010B70700089C432326F4FE1520AA873E
:100864002326F4FE8327C4FE93F707F02326F4FE21
:100874008327C4FE99833E85F240624405618280E9
:10088400B7270240C84F098182809C4503D80500E0
:1008940013F7070193F8F7001DCB584D93E81800A0
:1008A40081468D4E414E3316D0283373C800631CE5
:1008B40066001393160033966E003377C740D04119
:1008C40033166600518F8506E39FC6FD58CD137716
:1008D400F80F1DCF18418146130380023D4E930E3D
:1008E4008004A1453316D028337FC800631EE60177
:1008F4006395670650C913962600331FCE003396BE
:10090400C8003377E741518F8506E39DB6FC18C1D3
:100914001307F00F6372070554410146130E80025A
:10092400930E80042143130786003317E028B37520
:10093400E800631FB7006396C70358C9131726005E
:10094400BD45B395E5003397E800B3F6B640D98EBC
:100954000506E31A66FC54C18280E39ED7F910C9E8
:1009640059BFE39DD7FD18C9D1BF371701409D4733
:100974009306078063F8B702938785FF93F7F70F11
:10098400631AD506B70601408C468A073D473317DC
:10099400F70033F7E54098C69846B317F600D98FA9
:1009A4009CC682806308D502930707C0630AF508D2
:1009B400631CE51637070140544B8A05BD47B397BE
:1009C400B700B3F7F6405CCB5C4BB315B600DD8DD6
:1009D4004CCB82803707014054438A05BD47B39707
:1009E400B700B3F7F6405CC35C43B315B600DD8DC6
:1009F4004CC38280930607C06304D5026312E510DA
:100A0400B70601408C4E8A073D473317F70033F78A
:100A1400E54098CE984EB317F600D98F9CCE8280CD
:100A2400B70601408C4A8A073D473317F70033F76E
:100A3400E54098CA984AB317F600D98F9CCA8280B9
:100A44003707014054478A05BD47B397B700B3F74A
:100A5400F6405CC75C47B315B600DD8D4CC7828099
:100A64003727014013070780AE876318E50437076B
:100A7400014054538A05BD47B397B700B3F7F64016
:100A84005CD35C53B315B600DD8D4CD3828037271D
:100A94000140130707806312E502B70601408C5634
:100AA4008A073D473317F70033F7E54098D6985641
:100AB400B317F600D98F9CD68280372701401307DD
:100AC40007C06317E5088A073D473317F700331655
:100AD400F6009D471347F7FF63FBB700B7070140D4
:100AE400945B758F98DB985B518F98DB8280B70796
:100AF4000140D457758FD8D7D857518FD8D7828013
:100B040013070740E315E5F8B70601408C528A073E
:100B14003D473317F70033F7E54098D29852B3179F
:100B2400F600D98F9CD2828013070740E31AE5F2BE
:100B340037070140544F8A05BD47B397B700B3F751
:100B4400F6405CCF5C4FB315B600DD8D4CCF828090
:100B54008280EFF23F82411185451305C00F02C226
:100B640002C402C64129D531B7F7FF1F83A74770D6
:100B740093F7070F8DE38545370500805129B78723
:100B8400004093870740D853814537050080136799
:100B94001700D8D3B529B7F7FF1F83A747703707C6
:100BA40071411307D75093F7F7F06380E708636147
:100BB400F702370750411307D750638DE70C370707
:100BC40060411307D7506385E71241016FF0CFFCF2
:100BD400370772411307D750E399E7FE0964930777
:100BE400F4FDB71401407C824C0093078002138506
:100BF40004803EC65939E1779387C70F4C001385AB
:100C040004C07C825931F977938707034C00371568
:100C140001407C829D39930700304C0013850440C9
:100C240071147C829D316082B9A03714014093070E
:100C3400E01C7C824C0093078002130504803EC6AE
:100C4400A931E1779387470E4C00130504C07C82D9
:100C54002D39F977938707034C00371501407C82BF
:100C64002D31930700304C00130504407C82313948
:100C7400930740387C82372401404C0013050480DC
:100C840029319167938707FC4C00130504C07C82CB
:100C9400ED3E25BF3714014093070010130504806F
:100CA4007C824C00930780023EC6C53693074002FF
:100CB400130504C04C007C82C93EF9779387070270
:100CC4004C00371501407C82C936DD5713050440BA
:100CD4004C007C82372401404D3E930770784C00D1
:100CE400130504807C825536E17793C777FC69BF8E
:100CF4003714014093070070130504807C824C0074
:100D0400930780023EC65136930740C0130504C0C2
:100D14004C007C829D3EF9774C00371501407C8263
:100D2400AD369307309F130504404C007C82B13EDE
:100D3400E1773724014093C7F7DF4C0013050480A3
:100D44007C82A13695679387F7833DBF3315A0282E
:100D540089C937C700E083270730C98F2320F730BC
:100D64008280B7C700E003A707303375A74023A0EC
:100D7400A7308280B7C700E03315A02823A4A7308A
:100D84008280377700401C43F99BC98F1CC337F717
:100D940000E0832707D193E747002328F7D085474E
:100DA4006391F502832707D1DD9B2328F7D07300D5
:100DB400501037F700E0832707D1ED9B2328F7D0A5
:100DC4008280B707014093850740B766142003A6C5
:100DD400468F8841498E90C1B765142023A4058E9F
:100DE4007D562322C7C8032607D11366860023280D
:100DF400C7D07300501093874741984303A6468F8A
:100E0400718F19E703A7468F01C773005010F5B718
:100E1400984323A4E58E370701401307074003A630
:100E2400468F0C4333F6C54010C303A7468F944343
:100E3400558F98C3BDBFB7170240D4439847214686
:100E4400B18A6394C602B7060070758F37060050E6
:100E5400630EC7146360E6021DC7B7479C1CB70640
:100E64000040938707806307D706B7877D01938780
:100E740007848DA037060060630BC710B76773073C
:100E840093870794CDB79047944798479305000AF2
:100E940093F6060E21831377F7037D8A0507639D76
:100EA400B608B767CD1D9387075033D7E702B70756
:100EB400132093870716B2979C239146B387E702C2
:100EC4006309D600856693860654B3D6C600858A20
:100ED40091C285831CC13716024054423707132040
:100EE400130707159182BD8A36971823938681814B
:100EF400B3D7E7005842416641830D8B36971823D8
:100F0400B7F600E033D7E70058C183A606D1F18EC7
:100F140091E2BA871CC5371602405C4263DD0708BC
:100F24005C4237479C1C13070780AD83FD8B9507F4
:100F34003357F70258C582809305000E6392B602B8
:100F4400D45BB707132093870714C182B6979C23F9
:100F5400B7867D0193860684B387D7028583B1B7AC
:100F6400930700086397F600B7479C1C9387078094
:100F74002DBF9307000C6397F600B7677307938739
:100F8400079425B7B7877D019387078439BFD85B5A
:100F9400B7071320938707144183BA979C23378795
:100FA4007D0113070784B387E70225B7B767CD1D13
:100FB4009387075005B7544293870181AD829D8A78
:100FC400B6978C235C429386C180B9838D8BB69788
:100FD4009C233357B700A9BF99C5371702401C4F4C
:100FE400C98F1CCF8280B7170240984F3375A74032
:100FF40088CF828099C5371702405C4FC98F5CCF78
:101004008280B7170240D84F3375A740C8CF82807B
:1010140099C5371702401C53C98F1CD38280B71758
:10102400024098533375A74088D382803717024013
:101034001C4309C5939747291CC38280939747494A
:10104400E5BF371702401C4309C5939767291CC3A2
:10105400828093976749E5BF371702405C4309C50F
:10106400939767295CC3828093976749E5BF3717D5
:1010740002405C4309C5939777295CC382809397A8
:101084007749E5BFB7170240D85B719BD8DBD85BC3
:10109400498FD8DB8280B7170240D85B4D9BD8DBE1
:1010A400D85B498FD8DB8280B7170240D85BF976CA
:1010B4009386F60F758FD8DBD85B498FD8DB828097
:1010C400B78700409387074011C5D85313671700AB
:1010D400D8D382809843799B98C382801E294A255D
:1010E400ED8F3345050889C76D8D3335A0008280A7
:1010F4000145828093C5F5FFB3C505080EA982801A
:101104001E21BA21B3C7070893F7F7F8D98F9A2598
:1011140093F7F7CFD98F1EA1DC415CD59E211EB574
:1011240085475EA98280EFF2EFA41A29F577FD17AF
:101134007D8FFE2196254111D98F1EA9DE215A25C6
:101144002A84D58FB625AE84D58F8D669386369F37
:10115400758FD98F5EA55E29DA25B3C7070893F783
:10116400F7CFD98F5EA90A85F9319247654590403A
:10117400B335F50281460A063305F502EF20B06661
:1011840093064006B357D5021306F063139747003E
:10119400B377D502920793872703637AF600930700
:1011A4000701B3C707081EA441016FF0EF9EB3D730
:1011B400D702D98FFDB75E2589C59397D7285EA539
:1011C400828079777D17F98FDDBF93F5F51F4EA1E6
:1011D40082800A216D8D3335A0008280B767142088
:1011E40083A7478E37470F0013070724B3D7E702B7
:1011F400376714202318F78E1307803EB387E7025E
:10120400376714202326F78E8280B7F700E0D8438F
:10121400799BD8C3376714200357078F23A407008B
:101224003307A70298CB114798C398431367170055
:1012340098C3D843058B75DF9843799B98C3828004
:10124400B7F700E0D843799BD8C337671420032746
:10125400C78E23A407003305E502114788CB98C342
:1012640098431367170098C3D843058B75DF9843D9
:10127400799B98C38280EFF2EF8F2A841165011164
:1012840085451505B714014002C202C402C602C84E
:1012940002CA02CC02CEB93B1D4613850480A54583
:1012A400EFF0AFEC930700207C828D473EC44C00E6
:1012B400E147138504803EC6EFF02FDD22C8374492
:1012C4000140B70708000C08130504803ECC02CA8D
:1012D400231E0100893D854513050480E93D056110
:1012E4006FF08F8BEFF26F8737490140AE893284FC
:1012F40081441309098063C5840022856FF02F8916
:10130400930500044A85F13565DDB387990083852B
:1013140007004A858504B3C50508453DE9BFAA878A
:1013240003A5C181378715201307C7DEAA9763EB8E
:10133400E70037071820130707806365F70023AE1B
:10134400F18082807D558280EFF2CF82B7671420CE
:10135400054423A68792B767142083D7A795B76659
:10136400142093F7F70FEDC3B76514200D67938727
:10137400C5971307576EFAA382A737F700E01847FB
:10138400C14423AE8690BAA34183DAA31307D04D98
:10139400BAA784CB23A60700B767142023A4079217
:1013A400B767142023A20792B767142023A00792DB
:1013B400B767142023AC0790B767142023AA0790BB
:1013C400B767142023880790B767142023A60790D3
:1013D400B767142023A207906577B7671420130713
:1013E40007C123A00790B7271320239EE596938770
:1013F400079023A4F18237051520B727132093877C
:10140400078F1309C5BE41469385C5971305C5BE0D
:1014140023A2F182EFE01FF9B747034023A6270D6B
:101424002393970C2384870C3767024083470780F4
:1014340093E717002300F780B7E700E037070001C0
:1014440023A6E7106FE05FF523AE069037670240EE
:10145400834607809307078093F6E60F2300D7801F
:1014640037E700E0B70600012326D7180F10000065
:1014740098331367670098B398331377970F98B32B
:10148400D1B7B7671420054623A6C792B7671420BF
:1014940083D7E793B766142093F7F70F638F070E8C
:1014A400EFE25FED37F700E0FD571CCBB765142082
:1014B400B5471CC39387C59723930700239407005C
:1014C4001847414423AEC690BAA34183DAA380CB24
:1014D4002395070023A60700B767142023A40792C7
:1014E400B767142023A20792B767142023A007929A
:1014F400B767142023AC0790B767142023AA07907A
:10150400B767142023880790B767142023A6079091
:10151400B767142023A40790B767142023A2079069
:101524006577B7671420130707C123A00790B7276F
:101534001320239EE5969387079023A4F182378591
:101544001420B72713209387078F930405994146E6
:101554009385C5971305059923A2F182EFE09FE4D3
:101564003707034024C32310870A8347270A93F7C6
:10157400C70F93E727002301F70A37670240834721
:10158400078093E717002300F780B7E700E03707E9
:10159400000123A6E7106FE03FE023AE0690B7F703
:1015A40000E023A0070037670240834607809307C3
:1015B400078093F6E60F2300D78037E700E0B706ED
:1015C40000012326D7180F10000098331367670013
:1015D40098B398331377970F98B38280EFE29FD92B
:1015E400B767142083A7C79089E7B76714202388B7
:1015F400079003A54182B76514201384C59741461B
:101604009385C597EFE01FDA1C30F59B1CB0C147EA
:101614001CC86FE07FD8B766142083A7C6923767CB
:1016240014209305C797850723A6F692B7F700E021
:101634009C471307C79713C6F7FF935706019EA548
:1016440083A7C692F2A19D8B91E73E27850793F766
:10165400F77F3EA73765142083572591B76614207A
:1016640003A686919207636CF60023AC0690B767D5
:10167400142023AA0790B767142023A0079003A679
:101684008691B767142049CE3766142083450691A6
:10169400C1E985452308B690376614208325069052
:1016A400372813201308088EC105C29523A2B182DE
:1016B40003A8869183280690835525914698920520
:1016C4006363B80C83552591032806909205B3856E
:1016D4000541C10523A6B79083A8C79085651388E3
:1016E400F5BF63761801938505C023A6B79083A53B
:1016F400C79003280690C295C1152320B690835540
:1017040025910325069092056364B5002320069075
:1017140083A5C79003A6869141060D8E23ACC6907F
:1017240083A6C790638E061083A6C7901315B028AE
:10173400637AD50803A6C7908566938606C063E3DB
:10174400C608B766142003C6868F89456310B6049D
:101754008547238CF68E83A74182B706034093877F
:101764000740BCC2930700401CCB1E2B3707034025
:101774002310F70A8347270A93F7C70F93E7270035
:101784002301F70A828083A58691A1B705486312D5
:101794000603238C068E83A6418237060340AA964D
:1017A40034C283A6C7909386068014CB23A60790E1
:1017B4006DBF45FE238CB68E83A64182B7070340D6
:1017C400B4C34DB783A6C790130600406377D6040D
:1017D40083A5C7909316B02863E1B604B7661420B6
:1017E40003C5868F85456310B502238C068E83A6B8
:1017F4004182370603409386064034C283A6C790CD
:10180400938606C05DB735F1238CB68E83A64182DC
:10181400B7070340B4C310CB89BF03A6C790930690
:101824000040E3E4C6F403A64182B7060340B0C215
:1018340083A6C79014CBB7661420238C068EBDB73D
:10184400B766142003A6069285476318F6001C3376
:1018540023A0069293E727001CB3C1471CCB83A6A1
:1018640041823707034034C321B7376714208327E5
:10187400C792B76514201386C59785072326F79268
:10188400B7F700E09C4793C6F7FF93D706011EA65F
:101894008327C79276A21387C5979D8B91E73E272E
:1018A400850793F7F77F3EA737681420835728915D
:1018B400B766142003A686919207636CF60023ACE6
:1018C4000690B767142023AA0790B767142023A0B3
:1018D400079083A78691B7681420E1CB83C708914A
:1018E400E9E737661420832706903725132013056C
:1018F400058EC107AA9723A2F18203A58691032E20
:1019040006908357289172959207636DF508835763
:101914002891032506909207898F03250690C10715
:101924001CCB41153E952320A690035528910328EE
:10193400069012056364A8002320069037661420DD
:101944002326F6900326C690B767142023A4C790D5
:1019540003A5418237480340376E14202326A80C80
:10196400032307011376F33F9357A30039CE33467D
:10197400060885072313C80C13F6F70F2304C80CB5
:101984002322FE90C14763FA670485472388F890B1
:10199400C1471CCB1C3341469385C597F59B1CB3AB
:1019A4006FE05FA083A786918DBF3766142003255F
:1019B400069285476318F5001C332320069293E7AB
:1019C40027001CB3C1471CCB61B73766142003261C
:1019D400C69029821376F60F55B7376614208327ED
:1019E400869081CF0328869083A78691C107B38709
:1019F400074123ACF690232406902388089049BF1E
:101A0400376702408347078113070780898BC9C35F
:101A14007623B7671420B3C606082399D79089465E
:101A240014ABB766142003D7279103A68691329787
:101A340023ACE6903767142083D627910326479179
:101A4400B296232AD79083D62791032647919206EC
:101A54006364D600232A0790376614208325869270
:101A640003D5279103284791858983A68182D5CD03
:101A740083D5279142959205636DB508B7670240F7
:101A840093870780D4C78327869285072324F692F9
:101A9400B767024003C7078193870780118B19C377
:101AA400114798AB982B058B1DCB054798ABB767AF
:101AB400142083A7C791858B9DC3B7F700E098478F
:101AC400B76714209387C797BAA34183DAA337670C
:101AD40014202324079298331347170098B3B76749
:101AE400024003C7078193870780418B01CB41479D
:101AF40098ABB7671420054723A0E792B767024065
:101B040003C7078193870780218B19C3214798ABAB
:101B140082800327479183D72791B697BA9737676F
:101B24000240130707805CC7B9BF83D5279142954C
:101B340092056368B500B76702409387078094C72E
:101B440099B70327479183D72791B697BA973767F1
:101B54000240130707801CC73DB7B767142003C7AB
:101B640007949307100A6304F70001458280B7665F
:101B7400142083D7C6931947A183636BF70437579F
:101B840010201307077EB3C7E7209C43828783D7BF
:101B9400C69393F7F70FA1C305476387E70683D777
:101BA400C6930547A183E392E7FC37671420835764
:101BB400E793D146A1836388D7008357E7932547EA
:101BC400A183E394E7FAB71713201947A38CE756C8
:101BD4001305F00F8280B767142003C71794930787
:101BE4001008E31EF7FAB767142083D7E7931307A7
:101BF400F003A183B387E702371713201307074DB8
:101C04009387B702BA9731A8B767142083C717948C
:101C140019479387F7F7E364F7F8B7071320938717
:101C240007181CC1ADBFB767142083C717941947A1
:101C34009387F70793F7F70FE363F7F63757102007
:101C44001307C77FB3C7E7209043B717132037673D
:101C54001420938747FA0357E79321830286B767D3
:101C6400142083C7179419479387F70793F7F70F3F
:101C7400E367F7F2375710201307C77FB3C7E7208E
:101C84009043B717132037671420938787ABE1B7C6
:101C9400B767142083C7179419479387F70793F7F7
:101CA400F70FE36EF7EE375710201307C77FB3C75C
:101CB400E7209043B7071320376714209387477CA6
:101CC40059BFB767142083C7179419479387F70739
:101CD40093F7F70FE365F7EC375710201307C77F27
:101CE400B3C7E7209043B7071320376714209387BF
:101CF400C71995B71306F0033307C7021307B702D2
:101D040011B71306F0033307C7020D07E5BD130629
:101D1400F0033307C7023507F5B51306F00333079D
:101D2400C7025D07C5B51306F0033307C7020507ED
:101D3400D1BD1306F0033307C702E9B51306F00358
:101D44003307C7021307170275BDB767142083C78B
:101D5400D7950547FD8B6384E70001458280B7660C
:101D6400142083D786951947A1836362F7023767E6
:101D7400102013078781B3C7E7209C43828783D74A
:101D8400869593F7F70FA1C305476387E70683D7C3
:101D940086950547A183E392E7FC376714208357B0
:101DA400A795D146A1836388D7008357A795254774
:101DB400A183E394E7FAB71713201947A38CE756D6
:101DC4001305F00F8280B767142003C7C7959307E4
:101DD4001008E31EF7FAB767142083D7A7951307F3
:101DE400F003A183B387E702371713201307074DC6
:101DF4009387B702BA9731A8B767142083C7C795EA
:101E040019479387F7F7E364F7F8B7071320938725
:101E140007181CC1ADBFB767142083C7C7951947FE
:101E24009387F70793F7F70FE363F7F63767102005
:101E340013074783B3C7E7209043B71713203767C7
:101E44001420938747FA0357A79521830286B7671F
:101E5400142083C7C79519479387F70793F7F70F9C
:101E6400E367F7F23767102013074783B3C7E72008
:101E74009043B717132037671420938787ABE1B7D4
:101E8400B767142083C7C79519479387F70793F754
:101E9400F70FE36EF7EE3767102013074783B3C7D6
:101EA400E7209043B7071320376714209387477CB4
:101EB40059BFB767142083C7C79519479387F70796
:101EC40093F7F70FE365F7EC3767102013074783A1
:101ED400B3C7E7209043B7071320376714209387CD
:101EE400C71995B71306F0033307C7021307B702E0
:101EF40011B71306F0033307C7020D07E5BD130638
:101F0400F0033307C7023507F5B51306F0033307AB
:101F1400C7025D07C5B51306F0033307C7020507FB
:101F2400D1BD1306F0033307C702E9B51306F00366
:101F34003307C7021307170275BDD9347300203065
:101F4400EFE24FC385450965EFF00F89376702401B
:101F5400834607809307078093F6F60C2300D78007
:101F64008346078093E626002300D78083461780A4
:101F740093F6960FA300D78003A68182B766142038
:101F840090C783D62691B296D4C78346278093E61A
:101F940006012301D7808346278093E64600230168
:101FA400D7808346278093E626002301D780834683
:101FB400278093E616002301D7808346278093E683
:101FC40086002301D7808346178093E61600A3007A
:101FD400D7808347078093E717002300F7806FE0DB
:101FE400AFBB83C70182854613F7F70F6386D7001B
:101FF40089476300F7028280B76702402392078013
:10200400130700202393E780B76714202399E790F0
:102014008280B76702402392B780060533450508DE
:102024002393A780B76714202399A7908280B717BA
:102034000140938707C0D843FD769386F60F758FCA
:1020440013670730D8C3D843C576FD16758F8D66E0
:10205400558FD8C31307004098CB1317B02898CBDB
:102064008280EFE22FB137140140130404C0131926
:10207400B028232824019304004004C81305200336
:10208400EFF0AF9813052003232A2401EFF0EF9714
:1020940044C86FE06FB0EFE2EFAD371401401304B2
:1020A40004C09314B02844C813052003EFF0EF953F
:1020B400930700401CC813052003EFF00F95130588
:1020C400200304C8EFF06F946FE00FADEFE28FAA26
:1020D40037140140130404C09314B02813052003DB
:1020E400EFF0AF921309004004C82328240113051C
:1020F4002003EFF08F9113052003232A2401EFF02E
:10210400CF901305200344C8EFF02F906FE0CFA8C1
:10211400EFE2AFA4AA842149371A0140931AB028E8
:102124009309004013070AC09397446063D70706D6
:102134002328570113052003EFF02F8D13040AC041
:1021440023283401130520037D198604EFF0EF8B57
:102154001379F90F232A340193F4F40FE31409FCDF
:102164005C40C574FD14E58F9397F728130520038D
:102174005CC0EFF08F891305200323283401EFF0AE
:10218400CF880844232A34015C400D671355B548B1
:10219400E58FD98F5CC06FE08F9F232A570159BF09
:1021A400EFE2AF9B37170140130707C05C43C576C6
:1021B400FD16F58F9397F728A1445CC30144B71922
:1021C400014013090040131AB02813052003EFF04F
:1021D400CF83938709C023A827019C47060413745F
:1021E400F40FB3F7470181C705041374F40F130503
:1021F4002003EFF08F81138709C0FD14232A2701E0
:1022040093F4F40FF9F05C43C576FD16F58F8D66F3
:10221400D58F5CC322856FE08F97EFE2AF95AE84D4
:102224002A89813513050006E5352A8413054006FD
:10223400EFE0BFFD4A85E93D498C13054006EFE018
:10224400DFFC2685F13511C50544B13522856FE0E3
:10225400AF941374F40F33348000C5BFEFE28F9151
:1022640041112A84FD3B130500065D351305400624
:10227400EFE0BFF92285693D13054006EFE0FFF862
:10228400193D13054006EFE05FF8E13B1305100626
:10229400413513054006EFE05FF719372AC63D358F
:1022A400DD3B324541016FE02F8FEFE2AF8C4111EE
:1022B400854513058003EFE0FFD3371401408D47B4
:1022C4003EC23EC44C00C147130504403EC60569E6
:1022D400EFE0AFDB93048004930709C04C001305BF
:1022E40004C07C8226C6EFE04FDA3D46130504C0E5
:1022F400B945EFE08FE791674C00130504C07C8279
:1023040026C6EFE08FD8130504C03D46B145EFE083
:10231400CFE52146130504C0B545EFE00FE5896715
:102324004C00130504C07C8226C6EFE00FD6354668
:10233400994537150140EFE04FE335469D45371584
:102344000140EFE08FE23546A14537150140EFE04B
:10235400CFE13546A54537150140EFE00FE135469D
:10236400A94537150140EFE04FE03546B145371533
:102374000140EFE08FDF4C001309097C3715014061
:102384002312210126C6EFE04FD013050440354641
:10239400B145EFE08FDD130504403546B545EFE068
:1023A400CFDC130504403546B945EFE00FDC1305D7
:1023B40004403546BD45EFE04FDB13050440354688
:1023C4009945EFE08FDA3546130504408945EFE07F
:1023D400CFD9FD77938747044C00130504407C82D2
:1023E40026C6EFE08FCA41016FD01FFBEFD29FF8E2
:1023F4006D3D371401408547130404405CC82945EA
:10240400EFE01FE48944294544C8EFE07FE304C8B2
:10241400393985451305F00F0935930500084945F9
:10242400ED3B13052003EFE0BFE17145053D1314B7
:10243400850075452535A16733440408938727FA39
:10244400B3658500B3C50508638BF50037651020B7
:1024540013050585EF10D07205456FD0FFF32945AC
:10246400F53B131485002D45D53B89673344040897
:1024740093872764B3658500B3C505086394F500A5
:102484000145E1BF376510201305C585EF10506F76
:10249400C5BFEFD23FEE85452A841305F00FB53B47
:1024A400930500084945953B1545EFE07FD98547DD
:1024B4006307F4008947630DF4026FD0FFED3764BE
:1024C400102013048487930444160C300820090454
:1024D400A933E31C94FE3764102013048486930408
:1024E40004010C30082009040D3BE31C94FEF1B7F1
:1024F400376410201304C49D930484140C30082002
:102504000904213BE31C94FE4DBF93773500B9EFDA
:10251400EFD25FE693F73500AA842E840945A9E734
:1025240081451305F00FD53991451305000EF5319A
:1025340093D5240093F5F50F1305A005F9399355A8
:10254400240093F5F50F1305B005C13993D5A40004
:1025540021808D891188C18D1305C0057D39814580
:102564001305000E5D3901456FD01FE305458280D8
:10257400EFD25FE02E84AA8481451305F00F7139F0
:10258400A6851305300D513985451305F00F7131BA
:10259400A285454559316FD03FE0EFD2BFDD854775
:1025A4006307F50089476309F5006FD0FFDE8145B5
:1025B40013054002753FD5BF81450545E5BFEFD200
:1025C4007FDB8547B7641420376414206305F50264
:1025D4008947630CF50603D5C48F8355A48FEFF0A8
:1025E4005FA003D5C48F8355A48F053703C501822B
:1025F4006D376FD07FDAB767142083C6079511470C
:102604006395E602376714200347379519CFB75708
:102614001020FD159387C77CB3C5F5209E21239E0A
:10262400F48EBE21231DF48E7DB703C70795914711
:10263400E313F7FAB767142083C72793C9DFB757A3
:102644001020FD159387877BC1BFB767142083C60D
:1026540007951147639DE6003767142003473795B4
:1026640019C7B7571020FD159387477A75B703C765
:1026740007959147E311F7F6B767142083C72793AB
:10268400B9DBB7571020FD159387077971B7EFD2DF
:102694007FCEB71702409C4737070070F98F370782
:1026A40000406388E7020145EFE05F980145EFE0F1
:1026B4007F9D0145EFE03F9E0145EFE0FF9E05450C
:1026C400EFE0DF96B7160240370720009C42F98FEF
:1026D400F5DF0545EFE0BF9985451315B028EFE018
:1026E400BF8F6FD07FCB376714208347879493F7CE
:1026F400F7072304F794B767142083D6C793130707
:1027040000106393E602B7070340D8331377070F2B
:10271400D8B3D83313671700D8B3370703405C33F3
:1027240093E707085CB3828083D6C793130700201E
:10273400639CE600B7070340D8331377070FD8B379
:10274400D83313672700C9BF83D6C7931307003054
:10275400639CE600B7070340D8331377070FD8B359
:10276400D833136787004DBF03D7C793930700403F
:10277400E315F7FAB7070340D8331377070FD8B335
:10278400371713201307C75CF8C7130750032396A2
:10279400E70A09472387E70AD83313674700ADBF21
:1027A400B70703404D479AAB0D47BAAB1307000474
:1027B400F8CF13070020B8D337871420130707B9BD
:1027C40098D33767142013070799D8D3B8C303D70E
:1027D400C70B13672700239EE70A239E0708238F4E
:1027E40007080947A38FE708A381E70A2390070A8C
:1027F4002381070A8280EFD2FFB701C5493D6FD01C
:10280400BFB981451315B028EFE00FFD0145EFE096
:102814001F86B71702409C4737070070F98F3707A8
:102824000040E38EE7FC0145EFE05F80C9BFEFD2D3
:102834007FB41DC5A93D37040340A5471CA09307D9
:10284400F0053CA0B13F85471CB0930780FB1CA05A
:1028540037070001B7E700E023A2E7106FD0DFB32A
:10286400B70703400D4798A3B7E700E03707000117
:1028740023A2E7180F100000BD3FCDB7011126CCED
:1028840022CE4ACA4EC852C656C45AC2B7040340DE
:1028940094249C3413F7F60FC18AE381060493F75A
:1028A400F70F13F77700C18B6395077211CF854734
:1028B400630AF7707244E2445249C249324AA24A56
:1028C400124B05617300203083C7F4093769142063
:1028D4003764142093F7F707A38FF40883C7F40928
:1028E400A18B63800766B78A142013870AB91C2357
:1028F400B765142036232300F9941C33376614205B
:10290400A380F5947E235A23231DF492B7671420E1
:10291400239FD792231EE692034A099493860AB909
:10292400137A0A06630C0A0883470994939747604D
:1029340063D30706376A142013054A94EFF0EFA116
:102944001375F50F9307F00F6302F5060357A4936D
:102954009307F0039304000463E6E7008354A4930D
:10296400B3C4040883294A94268613850AB9CE85FC
:10297400A699EFD03FA323223A95834709949397CE
:10298400476063D4075A8357A49363970756B707DE
:10299400034019470DA003470994930710026317D6
:1029A400F70003C715948547E309F7FCB70703400D
:1029B4001547238FE708A38FE708EDBD83C515945A
:1029C4002D4513F7F50FE363B5FEB7651020938526
:1029D40045B23347B7201843028703D7E793994694
:1029E400B769142021837D171377F70F63E3E60E8D
:1029F400B7661020938646B53347D720184302871D
:102A0400B76710209387870B842323A2F99491A09E
:102A1400B7070340B827B7661420B7671420131705
:102A24004760635A07060547238AE7921307002085
:102A3400239BE69203C7479385476313F706B7675B
:102A440010209387C7ECA433B82323A2F994A204DB
:102A5400D98C8357A49363F4F400231D94920357F1
:102A6400A4939307F0039304000463E6E7008354FC
:102A7400A493B3C4040803AB4994268613850AB906
:102A8400DA85EFD03F92269B23A269959307F00F36
:102A9400E30EFAF0DDB5238A07921307000449BF59
:102AA400B7671020938707E979BF83D7E79309476E
:102AB40093F7F70F6388E702636AF70099EF938748
:102AC400C183842323A2F994014A61B70D4763802B
:102AD400E7028144130AF00FADBFB7671020938754
:102AE40047C51DB7B7671020938747C331BFB76782
:102AF40010209387C7C109BFB7671020938747E8A1
:102B040021B7B767142083C647930547639DE60240
:102B1400B7671020938707E9A433B823B76510205B
:102B2400A204D98C371513201386E4FF938525E975
:102B340013056560EFD01F87B7171320938747608D
:102B440023A2F99439B783C7479313FAF70FD1F344
:102B5400B76710209387C7ECA433B823B765102058
:102B6400A204D98C371513201386E4FF9385E5EC72
:102B740013052564EFD01F83B717132093870764C9
:102B8400C1B783D7E7933767142093F7F70F230C64
:102B9400F792E5B3B767142083C797939CA20357B2
:102BA400A4938547E3FBE7DC231DF492F9B383D7B1
:102BB400E7933767142093F7F70FA30CF792B767DF
:102BC400142005472389E792B76714201147238807
:102BD400E79465B3034709947D8B0DE383D7E793AB
:102BE400054793F7F70FE393E7DC37671420834730
:102BF400379393F7E70FA309F79241B30347099477
:102C040089467D8BE314D7DA83D7E79393F7F70FDD
:102C1400E39E07D88357C6939306100893F7F70FDC
:102C2400638FD70263E0F6028D46638FD702954621
:102C34006386D7048546E39BD7D6B7070340A381B1
:102C4400E70A25BB130740086385E70213076008FA
:102C5400E39EE7D4B7070340238B070A39BBB707C2
:102C640003402381070A11BBB7070340A385E70A82
:102C740029B3B70703402387070A01B3B707034003
:102C8400A389E70ADDB9034709947D8B45E303D79C
:102C9400E79385461377F70F6312D704B7661420BA
:102CA40083C746936399E700B767102083C737ED5E
:102CB40093F7070289EF83C74693E39907CEB76773
:102CC400102083C777E993F70702E38107CE3767BC
:102CD40014208347379393E7170031BF83D7E793D3
:102CE400094793F7F70FE393E7CC0357C69393078A
:102CF40000106304F7020357C69393070020630E82
:102D0400F7000357C693930700306308F70003578F
:102D1400C69393070040E312F7C63767142083472E
:102D2400879493E707082304F79481B90347099428
:102D340089467D8BE313D7C483D7E79393F7F70FC3
:102D4400E39D07C28357C6931307100893F7F70F41
:102D5400638BE7046366F7020D476381E706154753
:102D64006384E7080547E393E7C4370703408347D1
:102D7400370A93F7C70F93E71700A301F70AF5BEC5
:102D8400130740086387E70413076008E390E7C26A
:102D9400370703408347670B93F7C70F93E7170081
:102DA400230BF70AD9BE370703408347270A93F753
:102DB400C70F93E717002301F70AC1B6370703408B
:102DC4008347B70A93F7C70F93E71700A305F70ADA
:102DD4006DB6370703408347E70A93F7C70F93E7B6
:102DE40017002307F70A51BE370703408347370B01
:102DF40093F7C70F93E71700A309F70ABDBE238013
:102E0400060071BBEFE0EFE78DBE8347099423987A
:102E14000AB80947FD8B639EE70A0357C693130656
:102E240010081377F70F6305C7066363E6020D46C0
:102E3400630DC70615466304C70885476302F70494
:102E44000357A4938947E3F3E7B6231DF492B9BE6D
:102E5400130640086300C706130660086306C70626
:102E640013062008E31EC7FC370703400347670A1D
:102E74000D8B05466313C70098A20357A4931DB393
:102E8400B707034083C7370A8D8B6393E7009CA27F
:102E9400B707034083C7270A05478D8B6393E70071
:102EA4009CA20357A4938947F5B937070340034706
:102EB400B70A7DBF370703400347E70A55BF370703
:102EC40003400347370B6DB7370703400347670BCE
:102ED40045B783470994FD8B81CB8357A493E37E45
:102EE400F7A8231DE49251BCB767142083C7379316
:102EF400858BE5D798A2D5B70357A493930700040D
:102F040063E6E7008357A493B3C707080357A49362
:102F14001D8F33470708231DE49237070340231E00
:102F2400F7089947230FF70871B28357A493E390E6
:102F340007A6B7070340239E07081947238FE7080E
:102F440095BAA38F040883D7C40703470994B3C76A
:102F540007081377070635C3231D04923767142027
:102F6400034717946947639AE704378714201307C4
:102F740007B9B76414203C23343303C71493376967
:102F840014206316F700034709936308D702370731
:102F94001320130707183CA334B32380F18203C51D
:102FA4000182A388F4922308D992EFF08FCE83454F
:102FB400099303C51493EFF08FE08357A493E39B25
:102FC400078E85BF83C7340A93F7F707A381F40AF2
:102FD400D5B00DC78547E31FF78C83C7240A93F741
:102FE400F7072381F40A83C7240A93F7C70F2381C1
:102FF400F40AEFE04FE2EFE06FDE6DB883C7E40957
:103004003769142093F7F707238FF4088357A9939C
:1030140081E79947A38FF408B767142083C70794FF
:1030240093F70706C9E3B767142083C71794954637
:1030340013F7F70F6385D7089947631CF7080357FD
:10304400A9939307F0031304000463E6E700035411
:10305400A99333440408B769142083A44994378599
:1030640014202286A685130505B9EFD0AFB3835784
:10307400A993A29423A29994818FB3C70708231D0F
:10308400F992B7070340239E870803C7E70913474C
:103094004700238FE70803C7E7091377C70F1367B0
:1030A4002700238FE708B767142083C78794939773
:1030B4004760E3D10780EFF00FE36FF0AFFFB7672E
:1030C400142083C787933707034093F7F70F3CB364
:1030D400D9BFB7070340239E0708F1B793770704C6
:1030E40091C7930700049CA46FF0CFFC937727004B
:1030F40095CB89479CA4B824B7671420098B19CBB6
:1031040003C7379313672700A389E79283C73793CD
:103114006FF04FFA03C737931377D70FA389E7925A
:103124006FF04FF993771700ADC7B7671420A38CDE
:103134000792B7671420238C0792B7671420A389DA
:103144000792B767142023890792A3810400EFF044
:103154002FE5054798A4B767142083C607956387AE
:10316400E60083C6079511476396E6F4094723886A
:10317400E794B7E700E03707004023A2E7103707DA
:10318400008023A2E7100545DD220545252B6FF0BD
:103194006FF298A46FF00FF237470140231207C271
:1031A400F9562318D7C037060020B7E600E023A459
:1031B400C6108356C7C093E616002316D7C083579C
:1031C40007C093E717002310F7C082803717024027
:1031D4001C43B7160240939767291CC33707800026
:1031E4009C42F98FF5DF8280EFD2CF988145056547
:1031F400EFD09FDE0145EFD09FE70145EFD0DFE53B
:10320400B71702409C4737070070F98F6385E700C2
:103214000145EFD01FE36FD02F98EFD2AF950DC1CA
:10322400753785450565EFD03FDB0545EFD0DFE217
:103234000545EFD0DFE30545EFD0BFE06FD0CF9574
:103244006537EDBFB7470340B85B13672700B8DBAA
:10325400B85B759BB8DB8280EFD2CF91E537B74777
:10326400034009472390E7082391E70823A20708AE
:10327400B786152023A40708138707089386C6BEBC
:1032840054C714CBB70615209386C6BE74C79306DD
:1032940000402393D70C83C6070C93E616002380C3
:1032A400D70CB78614209386C6BE74CF4147238CAF
:1032B400E70C6FD06F8EEFD2EF8B0DC1B747034091
:1032C400B85B13674700B8DB0547F8DB370707002F
:1032D40013071702B8DB49376FD00F8C374403400C
:1032E40091473CD81C40B704008013878400D98FD1
:1032F4001CC013054006EFD05FF13C58DD14ED9B74
:103304003CD81C40E58F1CC0C535F9B7EFD28F8679
:10331400011185453705400002C202C402C6EFD040
:103324007FCD0808EFD03FB18567938777383EC4D7
:10333400D247096713070771B3D7E702374401403F
:103344004C00130504C02316010023130100FD17CC
:103354007C82EFD0FFDA8545130504C0EFD09FD9F6
:10336400B7E700E0A38E074405616FD0EF8211C177
:1033740025B5B7E700E03707002023A4E7180F10AE
:103384000000374701408357C7C0B3C70708F99BFC
:10339400B3C707082316F7C0835707C0B3C7070886
:1033A400F99BB3C707082310F7C08280EFC29FFCC4
:1033B400376614201C4958458325C69489462A84B7
:1033C40063F8B600B745034094459396562994C5CF
:1033D400635407120567930607F0F58FB70600805C
:1033E40054C4930600506398D700B78714202398D9
:1033F40007BC6FC07FFA9316B028639CD702B767E7
:10340400142003C7979475D713054006A384079423
:10341400EFD0BFDFB7470340376792009386871F1B
:103424001307877C98C29387C71F054798C39C439B
:10343400C9B7930600406396D7045C40BD9B5CC04B
:10344400B767142003C7079511E705472388E79456
:10345400A13345B783C6079509476399E6000D472D
:1034640001452388E794EFF08FBCDDB783C6079549
:103474001147E390E6F8238807940545EFF02FBB46
:103484008DBF930600306394D7028546B767142036
:10349400A384D79437679200B74703401386871FE6
:1034A4001307875C18C29387C71F94C349B7930651
:1034B4000010E38CD7FC93060020E388D7FC1307A5
:1034C40007906391E702B78714200545239807BC4A
:1034D400DD33B7671420A38907945C4093970749A9
:1034E4005CC001BF13070060E395E7F0B7671420E1
:1034F40005472388E79451B79377074091CB930707
:1035040000405CC4B7671420A38907941C48D5B550
:10351400B7078000B376F70091CA5CC45C4093E7B8
:1035240007015CC05C4093E707085DBFB707400034
:10353400B376F7008DC25CC4930700287CD01C408E
:10354400858B99C7C16791073CD42326040655B5DA
:10355400B7070200CDBFB7072000B376F700F9C65E
:103564005CC43C4C144013F7071E858A85C6930738
:1035740000086318F7009307002A7CD0232404066C
:10358400E9B79307000CE316F7E67C489397E7291D
:103594007CC885B59306000A6316D7029307002CEE
:1035A4007CD023240406232604067C4811470145C5
:1035B4009397E7297CC8B76714202388E794453B91
:1035C40001456DBD930600046317D700A58393F7E7
:1035D400F70F5CBC39BD93070002E31CF7E0032737
:1035E400C6948947E3E7E7E03C4CB786142093F799
:1035F400074085C3B747034098431317072998C367
:1036040098431317172998C3930710102398F6BCEF
:10361400CDB3B747034098431317074998C398435A
:103624001317174998C3239806BCE1B389677D8FA4
:10363400E30107DC5CC41C48898BE38C07DAB767B9
:1036440014200545A3890794EFF0FFC65C4093E777
:1036540007015CC001000100010001005C40BD9B4A
:1036640041B5BC596205A207A183BCD9BC595D8D83
:10367400A8D98280B7470340378783009386871F82
:10368400130727C198C29387C71F054798C3904360
:1036940037868D001306A69A90C298C39043374686
:1036A40095001306064390C298C3904337069300CF
:1036B400410690C298C39C43374705B0B7C703502F
:1036C40098CF8280EFC21FCB5DC10545EFF0FFB4F8
:1036D400B74703401307803498C34947D8C3378793
:1036E40020001307073498C303D70705136707207F
:1036F4002398E70498431367270098C33727E0808B
:103704001307074098C7376714208326C7940947CF
:103714006376D70098471317572998C7B7470340CC
:103724000947D8C313078007BAB7130720032384B4
:10373400E7022386070223880702B85B1367470062
:10374400B8DB0547F8DB3707070013071702B8DBB8
:103754001537EFF07FB0B7E700E03707004023A24A
:10376400E7103707008023A2E7106FC0FFC2B7E756
:1037740000E0B704008023A297180F100000370759
:10378400004023A2E7180F1000003744034091477C
:103794003CD81C401387840013054006D98F1CC0F5
:1037A400EFD0BFA63C58DD14ED9B3CD81C40E58F00
:1037B4001CC0EFF07FA355BF411126C4B74401409C
:1037C4008545138504C022C6EFD05F9185476315F4
:1037D400F5062A848545138504C0EFD0BF91B764EC
:1037E400142083C70495639E87003767142083479A
:1037F400A7948946850793F7F70F63E4F604230536
:10380400F79403C704958D476318F702B7E700E000
:103814003707004023A2E7180F1000003707008085
:1038240023A2E7180F1000000145693D0545EFF09C
:103834000F800145EFF0BFB33244A244410173004D
:10384400203023050794B7E700E03707004023A2A0
:10385400E7180F1000003707008023A2E7180F10A5
:103864000000014585350545EFE07FFC0145EFF09B
:103874001FB041BF37450340EFF05FB37300203002
:103884002A871375050721E19307F7FF131747608C
:10389400635E070093F7F707374703401307070CE6
:1038A4009607BA971307000698B3828037470340F8
:1038B4001307070D9607BA9798331367070698B34B
:1038C400414798A782801305F00F82802A871375D9
:1038D400050715E99307F7FF13174760635F0700B0
:1038E40093F7F7073747034096071307070CBA9770
:1038F40098331367070898B38280374703409607C5
:103904001307070DEDB71305F00F82802A8713758F
:10391400050739E19377F707B1C39307F7FF131747
:1039240047606355070293F7F70737470340960745
:103934001307070CBA979C339397476063D0070229
:10394400B787152005472386E7BE828037470340A3
:1039540096071307070DF9BF1305F00F8280B747C9
:103964000340F85B011122CE26CC4ACA4EC852C687
:1039740056C45AC21376670089466316D648B78A76
:1039840015201387CABE1C23B7641420B7651420FE
:10399400A38EF4941C33362337641420238EF594B9
:1039A4007E235A2337891420231BF494B7671420E9
:1039B400239DD794B7661420239CE69483C9D49599
:1039C400130609BD230106002303060093F9090623
:1039D400130909BD138ACABE6386090883C7D4952F
:1039E4009397476063D40706376A142013050A9631
:1039F400EFE0AFB51375F50F9307F00F630BF50800
:103A0400035764959307F01F1309002063E6E7004A
:103A1400035964953349090883290A964A8613850C
:103A2400CABECE85CA99EFC0FF9723203A9783C7B1
:103A3400D4959397476063D5073A83576495639603
:103A44000734B74703403707A000A1A803C7D4959C
:103A540093071002631FF70203C7C5958547639A4E
:103A6400E702F1B703C7C595AD451375F70F63EAD0
:103A7400E50037671020130707B73347E5201843DD
:103A8400028713070003E304E5FA13071003630432
:103A9400E51437074000B747034023A2E708370778
:103AA400C00023A4E70839AE03D7A795B946376900
:103AB400142021837D171377F70F63E6E60AB766B0
:103AC4001020938606BA3347D72018430287B76776
:103AD4001020938707E72320F9969C2325A8B7672E
:103AE40010209387C7C7B8232320F996BC33A207B5
:103AF400D98F0DA083D7A795094793F7F70F638D47
:103B0400E706636BF704A5E79387C1832320F9963F
:103B14009C2381490357649563F4E700231BF494C1
:103B2400035764959307F01F130A002063E6E70028
:103B3400035A6495334A0A08032B0996528613855F
:103B4400CABEDA85529BEFC0FF852320699793078D
:103B5400F00FE380F9F4E1BD0D476384E702130736
:103B6400E00E6385E70281479309F00F65B7B767F5
:103B74001020938747C585B7B7671020938747C33D
:103B840099BFB76710209387C7C1B1B7B767102033
:103B9400938787C089B7B7671020938747E825BF05
:103BA400B7671020938707BF3DBF83D7A795054705
:103BB4002301E900A301F9009DBDB767142083C761
:103BC40057952300FA00035764958547E3F1E7E628
:103BD400231BF494A9BD83D7A795054778A27CB28B
:103BE400B9B583D6A7953767142093F6F60FA30AC1
:103BF400D7948346579585CAB766102083C616C8DE
:103C0400034657956381C602A30AD7940347579581
:103C140083D7A79593F7F70FE30DF7E62300090081
:103C2400A3000900BDB503465795B766142005E205
:103C3400A38906940347579583D7A79593F7F70F5E
:103C4400E307F7DE23000900A3000900CDB305460E
:103C5400A389C694C5B703C7D4957D8B21E303D745
:103C6400A79585461377F70F631BD7003767142092
:103C74008347479593F7E70F230AF7944DBB03D780
:103C8400A795930600031377F70FE302D7DA83D7D8
:103C9400A7951307100393F7F70FD1B303C7D49570
:103CA40009467D8BE317C7DE83D7A79593F7F70FF4
:103CB400E39107DE03D586951375F50FEFF05FBC2E
:103CC400BDB303C7D4957D8B05E303D7A7959306AE
:103CD40000031377F70FE31CD7FAB767142083C7E1
:103CE4003795E39607D475B303C7D49509467D8BFE
:103CF400E31FC7D283D7A79593F7F70FE39907D2AA
:103D040003D586951375F50FEFF05FBC0DB33747F8
:103D140003408347170C93E70702A300F70CEFD087
:103D2400AFE231B323000A0079BD83C7D49523964B
:103D34000ABE0947FD8B639DE70203D5869513757B
:103D4400F50FEFF0BFBC83471900034709008E0746
:103D54000A07D98F03470A00D98F035764952300B4
:103D6400FA00894763F4E700231BF494AA89C5B3D6
:103D740083C7D495FD8BE1FBB767142083C74795B0
:103D8400858BF1D32300EA007DBF03576495930725
:103D9400002063E6E70083576495B3C70708035719
:103DA40064951D8F33470708231BE494374703406A
:103DB400939757292322F70883274708939777294E
:103DC4002322F708B74703400947F8DB7244E2446B
:103DD4005249C249324AA24A124B0561730020304B
:103DE40083576495E39F07C4B74703409387070845
:103DF40037072000D8C3D84313177729D8C3370708
:103E0400A00098C7C1B7937647009DCE1147378469
:103E14001420F8DB130404BD382019CF2830B7452B
:103E24000340EFF01F8423010400B747034023A29B
:103E3400070823A4070859BF782065DB783023904E
:103E4400E70423030400D5B793761700C1D20566AF
:103E540093568700718F9D8A45CF89CE0547E39796
:103E6400E6F603C7570C13670704A382E70CEFD0E9
:103E7400DF9FA9BFB764142003D7649511EB3707FC
:103E8400200023A2E7083707A00023A4E7083DBFCA
:103E9400376714208346C79519476396E60603D708
:103EA40064959307F01F1304002063E6E70003D42E
:103EB400649533440408B769142003A90996378527
:103EC40015202286CA851305C5BEEFC0AFCD83D7A2
:103ED40064953747034013070708818FB3C7070862
:103EE400239BF4945C43229923A02997C183FD8BDF
:103EF4008507C207C18F939757295CC35C43939787
:103F040077295CC3E1B53707200023A2E7087DBD0C
:103F140085C60547E39CE6EA378714201307C7BE26
:103F240023AEE70C4147238CE70C03C7570D1367F7
:103F34000704A38AE70C59BD3707A00023A4E708A8
:103F440083A78708694793F7F77FE391E7E8378703
:103F540015201307C7BE376414203C2334330347AA
:103F64002495B76414206316F70003C71495E30F70
:103F7400D7E437071320130707183CA334B323806F
:103F8400F18203C501822309F494A388D494EFE059
:103F94004FD083C5149503452495EFE04FE23DB51A
:103FA400EFC24FBD85450545EFD0CF848545370524
:103FB4000080EFD0EF850545EFD08F903764102057
:103FC400EFE0CFC209E9EFD0BFF7EFF02FB405451A
:103FD400EFF04FEF01A01305C4BDD5211305401F19
:103FE400EFD00FA6F1BF3288AA882E87CDEA63FFEF
:103FF400C50EC167636AF618B7070001B337F60048
:10400400B307F040E19BE1073353F6009726000025
:104014009386061B9A96942213030002B697B3065E
:10402400F340630BF3003397D500B357F50033180F
:10403400D6005D8FB318D500135608013355C70257
:10404400B346080893D708013377C702B385A6029D
:104054004207D98F63FAB700C2971307F5FF63E4E9
:10406400070163E8B7303A858D8F33D7C702B3C8E9
:104074000808B3F7C702B386E602C207B3E8F8003C
:1040840063FBD800C2989307F7FF63E5080179172B
:1040940063E3D8003E874205598D8145828063F5EC
:1040A400D500814501458280C16763E5F618B707ED
:1040B4000001B3B7F600B307F040E19BE10733D842
:1040C400F600172700001307A70F42971823930839
:1040D40000023E973388E8406392E81863EDB62601
:1040E4003335C500134515008145828045C6C16737
:1040F400637BF62413370610134717000E07B356D5
:10410400E600972700009387A70BB6979C23930696
:104114000002BA97B38EF640639DF608B387C54094
:104124008545935606013346060833D5D70213D77F
:104134000801B3F7D7023303C502C207D98F63FA64
:104144006700C2971307F5FF63E4070163E0672282
:104154003A85B387674033D7D702B3C80808B3F7A3
:10416400D7023306C702C207B3E8F80063FBC800EE
:10417400C2989307F7FF63E50801791763E3C80062
:104184003E874205598D82809337061093C71700E6
:104194008E079DBD81469727000093876702B697D7
:1041A4009C23014793060002BA97B38EF640E38737
:1041B400F6F63318D60133D3F50093560801335E6F
:1041C400D302B395D501B357F500CD8F3346080814
:1041D40013D70701B318D5013373D302B305C6034C
:1041E400420333676700637BB70042971305FEFF02
:1041F400636A07176378B716791E42970D8F335594
:10420400D702B3C707083377D7023303A60242079E
:10421400D98F63FB6700C2971307F5FF63E00715A7
:1042240063FE67127915C29793150E01B387674031
:10423400C98DE5BD93B7061093C717008E0733D811
:10424400F600172700001307A7F7429718239308CF
:1042540000023E973388E840E382E8E8335EE600F4
:10426400B3960601336EDE00B3D8E500935E0E010B
:10427400B3D7D803B39505013357E5004D8F3343C6
:104284000E089356070133160601B3F8D803B30595
:10429400F302C208B3E6160163FBB600F2969388F4
:1042A400F7FF63E3C60D63F1B60CF917F2968D8E32
:1042B400B3D5D60333470708B3F6D603B308B3021E
:1042C400C206558F637B170172979386F5FF636966
:1042D400C70963771709F9157297C207C16ECD8FA5
:1042E4009386FEFFB3F5D70013D30701F18E418205
:1042F400338ED50233071741B306D30293580E0108
:10430400B385C502B695C6953303C30263F3D500DE
:10431400769393D605019A966363D7026305D70013
:104324003E8581458280C166FD1633F7D50042077C
:10433400337EDE00331505017297E373E5FE1385C2
:10434400F7FF81458280B70700016377F602935631
:10435400060141477DB38145054582803A85E9B52B
:10436400B685A5BF2A8E59BDC68791B77915C29760
:10437400CDB37915C297CDB993568601614751B330
:104384005D7122D406D62A842EDA32DC36DEBAC037
:10439400BEC2C2C4C6C603A5C18211C51C4D81E7F5
:1043A4002AC6952332450C455418228636CEEF0092
:1043B400D022B250225461618280011126CA06CEF5
:1043C40022CC4AC84EC652C4AA8419E11C450290A4
:1043D4001C4D2E89ADE3052B9C4C8044B9CF972707
:1043E40000009387E7F1631DF404C0407C50858B83
:1043F40099E75E2493F7072099E3284C59255E2416
:10440400A18B99C31C48D5E3A28526859D2A51CD4D
:10441400FD547C50858B99E75E2493F7072099E33C
:10442400284C8D25F24062444249B249224A2685ED
:10443400D2440561828000455DB72685E92145B7F0
:10444400972700009387C7E96314F400804479BF79
:10445400972700009387C7E6E31AF4F8C04479B7B6
:104464001CC4050963C807021C401387170018C041
:104474008CA31C4483450900FD17FDF11CC463D9BA
:1044840007022286A94526853D28FD57E302F5F853
:10449400A94441B7184C63C4E700E39745FD22865D
:1044A40026851520E31735FDA5B7FD59294AD1B74F
:1044B4001C401387170018C0294798A3D1BFAA85A9
:1044C40003A5C182DDBD011122CC26CA4AC806CE8D
:1044D4004EC6AA842E89328401C51C4D91E3252140
:1044E400972700009387C7E16317F402C0401C4C70
:1044F4001CC45E24A18B99C31C4895EFA285268514
:10450400492015C97D59F2406244D244B2494A85D2
:1045140042490561828097270000938767DC631412
:10452400F4008044E9B797270000938767D9E31024
:10453400F4FCC0446DBF1C4808409379F90F13790B
:10454400F90F1D8D5C486346F500A2852685912CE4
:1045540055F91C440505FD171CC41C40138717009E
:1045640018C0238037015C486388A7005E24858BCC
:10457400D9DBA947E319F9F8A28526851D2441D57D
:1045840051B7411122C426C24AC006C683A4C182BF
:104594002A892E8489C49C4C99E32685AD269727C5
:1045A40000009387E7D56313F402C0408317C40067
:1045B40013F7870025E713F707010DEB25472320A1
:1045C400E90093E707045EA47D5571A097270000D6
:1045D400938707D16314F4008044C9BF9727000070
:1045E400938707CEE314F4FCC044C9B7918B9DC3F1
:1045F4004C5889C9930744046384F5004A858D2B7C
:10460400232A04025E242322040093F7B7FD5EA448
:104614001C481CC05E2493E787005EA41C4899EBE9
:104624005E241307002093F707286385E700A2851B
:104634004A8575218317C40013F717001DC3584812
:10464400232404003307E04018CC1848014501E74F
:1046540013F707083DF7B24022449244024941014E
:10466400828013F72700814611E3544814C4F1BF34
:104674008397C500011122CC26CA06CE4AC84EC66D
:1046840013F78700AA842E8479E3D8416345E000B8
:10469400B8416356E008585459C303A9040023A041
:1046A40004000C5093D7C748A9CB70485E24918B63
:1046B40099C75C401D8E5C5899C33C401D8E5C5468
:1046C4000C50814626858297FD57630CF5041C48DF
:1046D4000567232204001CC05E24F98F91C368C8B7
:1046E4004C5823A0240185CD930744046384F5002A
:1046F4002685BD29232A04021DA001468546268558
:104704000297FD572A86E313F5FA9C40C5D37547F3
:104714006385E70059476395E70623A02401014513
:10472400B5A098408317C40001CFF5466305D700B0
:10473400D9466319D7041C48232204001CC04DB772
:1047440018482322040093D7C74818C041BF83A93F
:104754000501E38609FC03A905008D8B23A035011F
:1047640033093941014791E3D84918C4E35920FB7F
:104774001C540C50CA864E8626858297634FA0002F
:104784008317C40093E707045EA47D55F240624496
:10479400D2444249B24905618280AA993309A940A9
:1047A400F1B79C49411106C622C426C281EB81445B
:1047B400B24022442685924441018280AA842E84F8
:1047C40001C51C4D91E3812297270000938747B3CD
:1047D400631CF402C0408317C400F1DB7850058BDE
:1047E40011E793F7072099E3284C612C2685A285CD
:1047F40041357C50AA84858BC5FF5E2493F707203E
:10480400C5FB284C41246DB797270000938747AD1B
:104814006314F4008044C1B797270000938747AA24
:10482400E31BF4FAC04445BF411122C406C62A84DE
:104834004EA572A52320050023220500232405008C
:104844002322050623280500232A0500232C05001E
:10485400214681451305C505EFB03FB69717000003
:10486400938767865CD097170000938767881CD46A
:10487400971700009387278C5CD4971700009387C1
:10488400678EB24000D01CD8224441018280970533
:104894000000938545F149A2411126C29307800681
:1048A4009384F5FFB384F4024AC02E8922C406C659
:1048B400938544075D2E2A8401CD232005002322FD
:1048C4002501310508C4138684068145EFB0FFAE87
:1048D400B240228522449244024941018280171544
:1048E40004001305A51771AA17150400130505176D
:1048F40051AA171504001305A51661A21715040083
:104904001305051641A2411122C406C62A84D537CF
:104914001C4C89C72244B2404101CDB7970700001F
:10492400938727F71CD42324040423260404232870
:10493400040483A701846394870085471CCC2285E3
:104944003D2048C02285252008C422850D2048C466
:10495400484001469145C93D08440546A545E93509
:1049640048440946C945C93585471CCC65B741113A
:1049740026C24AC006C622C42A89953783A4018464
:104984009C4C99E326854137938484048044DC401D
:10499400FD1763D607009C40BDC38440C5BF031701
:1049A400C40039EBC17785075CC413058405232251
:1049B4000406F920153F2146232004002324040083
:1049C4002322040023280400232A0400232C0400A7
:1049D40081451305C405EFB05F9E232A0402232CEE
:1049E40004022324040423260404B240228522441E
:1049F40092440249410182801304840651BF9145C7
:104A04004A85EFF07FE988C02A8441F9EFF0DFEDB1
:104A1400B1472320F900D1BF797122D44AD04ECEB8
:104A240052CC5AC85EC606D626D256CA2A892E8ABF
:104A3400130485048149054BFD5B0444832A440027
:104A4400FD1A63D00A0200406DF8B2502254925409
:104A54000259624AD24A424BB24B4E85F2494561F1
:104A64008280DE24637BFB008397E4006387770105
:104A7400A6854A85029AB3E9A90093848406C9B736
:104A84008280828082805971A2D42E848395E5002D
:104A9400A6D2CAD086D6B284368963D205025E24F1
:104AA40093F707088DEB13070040B65026542320D4
:104AB400F90098C00659965401456561828030001A
:104AC4002127E34E05FC3247BD67F98F7977BA9702
:104AD40093B71700C9BF814713070004F9B7DE2550
:104AE400797122D406D626D24AD04ECE898B2E8412
:104AF40091CF930774041CC01CC885475CC8B2508E
:104B0400225492540259F249456182807400300063
:104B1400AA84953FA2492A892685CE85B92219E916
:104B24008317C40013F7072079FBF19B93E7270051
:104B34005EA4C1B7970700009387A7D59CD45E24D1
:104B440008C008C893E707085EA4B247232A3401C3
:104B540099CB8315E4002685452511C55E24F19B78
:104B640093E717005EA45E2433E527014AA441BFFE
:104B7400C5C183A7C5FF011122CC06CE1384C5FF8E
:104B840063D307003E942AC6E525171704001307CC
:104B9400A7ED1C43324581EB2322040000C3624489
:104BA400F2400561E1AD637DF4001040B306C4003A
:104BB4006396D7009443DC43B29614C05CC0F9BF3B
:104BC4003E87DC4399C3E37DF4FE14433306D700E8
:104BD400631F86001040B29614C33306D700E390D7
:104BE400C7FC9043DC43B29614C35CC34DBF6375EA
:104BF400C400B1471CC165B71040B306C400639636
:104C0400D7009443DC43B29614C05CC040C341BF98
:104C1400828041114AC0171904001309A9E48327AB
:104C2400090022C426C206C6AA842E8489E78145C7
:104C34008D212320A900A2852685A1297D59631AE7
:104C440025017D54B2402285224492440249410107
:104C54008280130435007198E30685FEB305A440F1
:104C640026850529E31025FFE9BF011126CA93848F
:104C74003500F1984AC8A104B14706CE22CC4EC6ED
:104C84002A89B3F4F40A63C4040063FDB400B14791
:104C94002320F9000145F2406244D2444249B2491A
:104CA40005618280F123971904009389E9DB83A7C6
:104CB40009003E8439E4A6854A85A13FFD572A842C
:104CC4006317F50A03A40900A287C9EB832904002A
:104CD40081454A85A299752E6395A9081C408D04C7
:104CE4004A859D8CF198B147A104B3F4F40AA685D2
:104CF400EFF03FF2FD576306F5061C40A6971CC073
:104D040015A01440858E63C806042D47637DD70221
:104D140004C0330794006396870223A0E9005C4033
:104D240014C35CC34A85992B1305B400930744004C
:104D340061993307F540E300F5F63A94898F1CC076
:104D440099BFD8C3E9BF58406395870023A0E90001
:104D5400D1BFD8C3C1BFA2874040A9BF3E84DC43B2
:104D6400ADB7B1472320F9004A85092B25B704C103
:104D740055BF1C46FD171CC663DA0700184E63C5F1
:104D8400E700A9476394F5006FF0EFF31C422E850A
:104D94001387170018C28CA38280011122CC26CA63
:104DA4004AC84EC652C406CE2A89AE893284B30498
:104DB400D6007D5A63149400014501A80C204E8648
:104DC4004A85453F0504E31745FFF2406244D24457
:104DD4004249B249224A05618280357122CD26CBEF
:104DE4004AC94EC706CF52C556C35AC1DEDEE2DCFD
:104DF400AA892E843289B68409C51C4D99E3EFF043
:104E04009FB0971700009387A74F6318F40403A477
:104E140049007C50858B81EB5E2493F7072081E762
:104E2400284CEFF01FC65E24A18B99C31C48A5E350
:104E3400A2854E85EFF0EFF439C97C50858BA1C370
:104E44007D55FA406A44DA444A49BA492A4A9A4A98
:104E54000A4BF65B665C0D618280971700009387AE
:104E640027486315F40003A4890065B79717000069
:104E740093870745E31FF4F803A4C90059BF5E24D0
:104E840093F70720D5FF284CEFF0DFBF55BF9307FA
:104E94000002A304F1029307000302D22305F102E6
:104EA40026C6930B5002971A0000938A6A47294B2F
:104EB400CA849C2099C3639A7709338C2441638EF6
:104EC4002401E2864A86A2854E85EFF01FEDFD5748
:104ED4006306F5189257E2973ED29C206380071828
:104EE400FD571389140002C802CE3ECA02CCA3099E
:104EF400010482D48345090015465685B12EC24764
:104F04009304190029E513F7070109C713070002E1
:104F1400A309E10413F7870009C71307B002A30923
:104F2400E104834609001307A0026389E602F247FD
:104F3400CA8481462546982093851400130707FDEB
:104F44006372E60685C63ECE15A085049DB733057B
:104F54005541B397A72826893EC869BF32479306AF
:104F64004700184336C6634807023ACE9820930791
:104F7400E002631CF70498309307A002631AF70257
:104F8400B2478904138747009C433AC67D57B3E769
:104F9400E70A3ECA1DA83307E04093E727003ACE4C
:104FA4003EC8E9B7B3876703AE848546BA9761B74D
:104FB400850402CA814681472546982093851400BA
:104FC400130707FD6372E606E9F68C200D461715F4
:104FD400000013056535492411CD97170000938708
:104FE400A7341D8DC247130700043317A700D98FB8
:104FF40085043EC88C201946171500001305053397
:10500400138914002304B102812C35C993070000CD
:1050140095E74247B2471377071009CF91073EC679
:105024009257D2973ED269B5B3876703AE8485465B
:10503400BA9761B79D07E19BA107D5B7780097069A
:1050440000009386C6D522860C084E859700000082
:10505400E7000000FD572A8AE314F5FC7C50858B99
:1050640081EB5E2493F7072081E7284CEFF09FA1A2
:105074005E2493F70704E39507DC1255D9B378004F
:10508400970600009386A6D122860C084E85112629
:10509400D1B7411122C42A842E859717040023A76F
:1050A400079C06C6EFC0AFA7FD576318F500971716
:1050B400040083A7A79B91C31CC0B24022444101B2
:1050C4008280411122C42E848395E50006C6812383
:1050D400634905007C48AA977CC8B2402244410138
:1050E40082805E249397C7485EA4C5BFDE25011164
:1050F40022CC26CA4AC84EC606CE93F70710AA8405
:105104002E843289B68991C78395E5008946014684
:10511400192A5E248315E400F2409397C7485EA4DD
:105124006244CE864A86B24942492685D244056104
:105134001DA8411122C42E848395E50006C6E520EE
:105144007D575E246319E5009397C7485EA4B24077
:105154002244410182809397C72868C85EA4C5BFD2
:105164008395E5001DA8411122C42A842E85B285A9
:1051740036869717040023AB078E06C6EFC08F96BA
:10518400FD576318F5009717040083A7278E91C372
:105194001CC0B240224441018280411122C42A84AD
:1051A4002E859717040023A3078C06C65129FD57A3
:1051B4006318F5009717040083A7478B91C31CC09D
:1051C400B240224441018280411122C42A842E85A6
:1051D400B2859717040023AB078806C69529FD57A7
:1051E4006318F5009717040083A7478891C31CC070
:1051F400B240224441018280411122C42A842E8576
:105204009717040023A4078606C69929FD57631837
:10521400F5009717040083A7678591C31CC0B240AB
:10522400224441018280411122C42A842E85B28500
:1052340036869717040023AB078206C61529FD5747
:105244006318F5009717040083A7478291C31CC015
:10525400B24022444101828093F5F50F2A966314EB
:10526400C500014582801C21E38EB7FE0505C5BF3C
:10527400170504001305457E6FF0BF801705040071
:105284001305857D6FF01F80797156CA9C49BA8ACF
:10529400984522D44AD04ECE52CC06D626D25AC8ED
:1052A4005EC6B3E7E70A1CC203C73504AA892E8485
:1052B4003289368A19C385071CC21C4093F707023A
:1052C40091C78327090089072320F900044099889E
:1052D40091E8130B9401FD5B5C4403270900998F4B
:1052E40063CCF40483473404B336F0001C4093F7D2
:1052F4000702A5EB13063404D2854E85829AFD5726
:105304006303F5041C4011478144998B6399E700BA
:105314008327090044449D8C8147B3E4F40A1C4468
:1053240018486354F700998FBE94014969047D5B62
:1053340063982405014509A885465A86D2854E8579
:10534400829A631E75017D55B250225492540259BB
:10535400F249624AD24A424BB24B4561828085048B
:10536400A5BF3307D40013060003A301C7040347F2
:10537400540493871600A2978906A381E7049DBF6E
:1053840085462286D2854E85829AE30E65FB050901
:1053940045B7797122D44AD04ECE52CC06D626D205
:1053A40056CA5AC803C88501930780072A892E84E0
:1053B400B289368A63E2070393072006938635048D
:1053C40063E10703630C081C9307800517160000AC
:1053D400130646F66308F814930424042301040511
:1053E40015A89307D8F993F7F70F5546E366F6FE29
:1053F40017160000130686F6B3C7C7209C43B2975E
:1054040082871C4393842504938647009C4314C3DA
:105414002381F504854775A290411C431375060842
:105424009385470029C19C430CC3584063DF07128E
:105434009305D002A301B40418C4635E0702B30742
:10544400F040171600001306E6EE2948B68433F739
:105454000703FD143297182398A03E87B3D7070398
:10546400E37707FF85A09C43137506040CC355DD41
:10547400939757605DBF6D9A10C0D1B790411C439C
:10548400137506089385470001C50CC39C4331A0DE
:10549400137606040CC37DDA9E231307F006171651
:1054A4000000130626E96310E80C2148A301040454
:1054B400584018C4E34C07F80C40ED990CC0D9F7D8
:1054C400B68449F7A147631EF8001C40858B91CB35
:1054D40058401C4863C7E70093070003A38FF4FEFA
:1054E400FD14858E14C85287CE867000A2854A8525
:1054F400EFF09FD9FD5A631A550D7D55B2502254D1
:1055040092540259F249624AD24A424B456182801E
:105514009C4193E707029CC11308800717160000FB
:10552400130686E2A30204050C401C4313F8050885
:10553400138547006305080008C39C4339A013F88A
:10554400050408C3E30B08FE9E2313F7150001C7E7
:1055540093E505020CC099C3414889BF18401377ED
:10556400F7FD18C0D5BF294891B7171600001306D8
:1055740066DC294835BF90411C43CC4913780608A2
:10558400138547006306080008C39C438CC339A0F5
:1055940008C3137606049C4375DA8EA323280400FB
:1055A400B68491B71C43D04181459386470014C308
:1055B40084432685EFF05FCA01C5B30795405CC0FC
:1055C4005C401CC8A301040439BF14482686CE8558
:1055D4004A85029AE30355F31C40898B85E74844C6
:1055E400B2473365F50A19BF85465686CE854A8586
:1055F400029AE30465F185045C443247998FE3C55C
:10560400F4FEF1BF8144930A94017D5BF5B7411127
:1056140022C42A842E85B28536869707040023A7E0
:10562400074406C6B128FD576318F5009707040020
:1056340083A7C74391C31CC0B24022444101828066
:1056440093078005170704002322F7427D558280C3
:105654009307800517070400232AF7407D558280AD
:1056640093078005170704002322F7400145828031
:105674009307800517070400232AF73E7D5582808F
:1056840093078005170704002322F73E7D55828087
:105694003C571020445710204C57102058571020C6
:1056A40064571020705710207C5710208457102006
:1056B40088571020563346205556432050726F6346
:1056C400657373696E6720436F72652053746172EA
:1056D4007465640D0000000053797374656D436F45
:1056E4007265436C6B3A25640D0A0000496E697457
:1056F40069616C697A696E67206475616C2D636F8A
:105704007265206D6F64652028563346206D61698B
:105714006E2C2056354620736C617665292E2E2E0C
:105724000D00000057616B696E6720757020563557
:105734004620636F72652E2E2E0D000056334620D0
:10574400656E746572696E672053544F50206D6F97
:1057540064652C2077616974696E6720666F7220B6
:1057640073796E632E2E2E0D0000000056334620F2
:1057740077616B652075702C20636F6E74696E752C
:10578400696E6720657865637574696F6E2E2E2E59
:105794000D0000004475616C2D636F726520737990
:1057A4006E6368726F6E697A6174696F6E20636F7D
:1057B4006D706C657465642E0D0000005374617225
:1057C40074696E672055564320766964656F20734B
:1057D400747265616D20616E64206765737475729F
:1057E40065207265636F676E6974696F6E2070728D
:1057F4006F63657373696E672E2E2E0D00000000B3
:1058040047657374757265207265636F676E697A34
:1058140065643A2025732C20436F6E666964656E57
:1058240063653A20252E32660D0A0000464953541A
:105834000000000050414C4D0000000053574950F7
:10584400455F4C454654000053574950455F524903
:105854004748540053574950455F555000000000D5
:1058640053574950455F444F574E000050494E43EB
:10587400480000004F4B00004E4F4E450000000012
:105884008002E00120035802B00090004001F000C3
:10589400600120018002E0014006B0040005C0035D
:1058A400000400036001200120035802600120016C
:1058B4008002E001000400034006B0042003580203
:1058C400600120018002E001000400034006B004EE
:1058D4009E1A1020361B10206E1B1020E01A102078
:1058E400A01B1020E01A1020D21B1020041C102032
:1058F400121C10201E1C10202A1C1020361C1020E4
:10590400421C10204C1C10208E1C1020261D102020
:105914005E1D10209E1C1020901D10209E1C102027
:10592400C21D1020F41D1020021E10200E1E102077
:105934001A1E1020261E1020321E10203C1E10207D
:105944004D49443A25640D0A000000004849443A90
:1059540025640D0A00000000FF00DA10D703DF0001
:1059640033803C40E1770000FF002CFF2EDFFF0175
:105974003C321100090204D813E514482C0C337886
:105984003A333BFB3E0043111610399235DA221AA2
:1059940037C3230034C0361A068807C00D870E416A
:1059A4004C0048005B0042034A8121992440253879
:1059B40026825C00630046000C3C617062807C05BA
:1059C400208028306C006D806E007002719473C169
:1059D4003D345A5712001711187519011A973236A7
:1059E400030F37404FCA50A85A236D006D38FF008B
:1059F400E57FF9C04124E01476FF33A04220431828
:105A04004C0087D5883FD703D910D382C808C980F2
:105A14007C007D007C037D487D487C087D207D10D2
:105A24007D0E9000910E911A9131915A9169917560
:105A3400917E9188918F919691A391AF91C491D7C2
:105A440091E891209200930693E3930593059300C4
:105A540093049300930093009300930093009300A6
:105A64009600970897199702970C972497309728D0
:105A7400972697029798978097009700C3EFA40002
:105A8400A800C511C651BF80C710B666B8A5B764D3
:105A9400B97CB3AFB497B5FFB0C5B194B20FC45CD1
:105AA400C0C8C1968C00863D50005190522C5300C2
:105AB400540055885A905B2C5C05D302C3ED7F00DB
:105AC400DA09E51FE167E000DD7F0500FF002CFF38
:105AD4002EDFFF013C321100090204D813E51448FB
