:020000023000CC
:080000006FA040150000000094
:100008001705F7DF1305C5EE9705FEFF938585DF16
:1000180017A6FEFF130686E563FAC50083220500CE
:1000280023A0550011059105E3EAC5FE17A5F7DFE2
:100038001305C5F797A5FEFF938545E317A6FEFFB1
:100048001306C6E263FAC5008322050023A0550003
:1000580011059105E3EAC5FE17A5F7DF130505F5B8
:10006800970500009385050A1386818963FAC50000
:100078008322050023A0550011059105E3EAC5FE7A
:1000880017650100130505A297850200938545F2BF
:100098006377B500232005001105E36DB5FE15A0B3
:1000A800B7B237129382023E739002BC9D4273909E
:1000B80012BCBD4273904280996293828208739009
:1000C80002309702FEFF9382E2D393E232007390EC
:1000D80052309702FEFF9382622A739012347300A3
:0400E80020300000C4
:1000EC000000030000000000DA020A20DC020A20F3
:1000FC000000000090080A20000000000000000032
:10010C0090080A2090080A2000000000000000005F
:10011C0090080A2090080A2090080A20000000008D
:10012C0090080A2090080A2090080A2090080A20BB
:10013C0000000000000000000000000000000000B3
:10014C0000000000000000000000000000000000A3
:10015C0090080A20000000000000000000000000D1
:10016C0090080A2090080A2090080A2090080A207B
:10017C0090080A2090080A2090080A2090080A206B
:10018C0090080A2090080A2090080A2090080A205B
:10019C0090080A2090080A2090080A2090080A204B
:1001AC0090080A2090080A2090080A2090080A203B
:1001BC0090080A2090080A2090080A2090080A202B
:1001CC0008220A2090080A2090080A2090080A2089
:1001DC0090080A2090080A2086320A209C310A20B6
:1001EC0090080A2090080A2090080A2090080A20FB
:1001FC0090080A2090080A2090080A2090080A20EB
:10020C0090080A2090080A2090080A2090080A20DA
:10021C0090080A2090080A2090080A2090080A20CA
:10022C0090080A2090080A2090080A2090080A20BA
:10023C0090080A2090080A2090080A2090080A20AA
:10024C0090080A2090080A2090080A2090080A209A
:10025C0090080A20E0300A2090080A2090080A2012
:10026C0090080A2090080A2090080A2090080A207A
:10027C0090080A2090080A2090080A2090080A206A
:10028C0090080A2090080A2090080A2090080A205A
:10029C0090080A2090080A2090080A2090080A204A
:1002AC0090080A2090080A2090080A2090080A203A
:1002BC0090080A2090080A2090080A2090080A202A
:1002CC00921C0A2090080A2090080A2090080A2004
:1002DC0090080A2090080A200000000090080A20CC
:1002EC0090080A20000000000000000090080A207E
:1002FC00000000000000000090080A2090080A206E
:10030C0090080A2090080A2090080A2090080A20D9
:10031C0090080A2090080A2090080A2090080A20C9
:10032C0090080A2090080A2090080A2090080A20B9
:10033C0090080A20397101436EC619A039714153D6
:10034C006AC866CA62CC5ECE19A0397101535AD004
:10035C0056D252D44ED64AD826DA22DC06DE3301E7
:10036C006140828241114AC026C222C406C68282E2
:10037C00B24D4101024D924C224CB24B4101024B09
:10038C00924A224AB2494101024992442244B24063
:10039C00410182802A8309CA8383050023007300EC
:1003AC007D16050385056DFA82802A8311C623000C
:1003BC00B3007D16050365FE828001A0B707EFBE72
:1003CC0037E700E0938707083CC701A0EFF29FF9DD
:1003DC000947AE8741112A84C1456308E5000D47E2
:1003EC00930500026303E500A14513062400B764DE
:1003FC000D203725014032C61309F4FF938444CAFB
:10040C00130505809DC3812D3246CA9485473795C7
:10041C000A209CA0A285130505D8EF60E05D1305AA
:10042C004006EF00F044410185B72525CA94379565
:10043C000A20324623800400A285130505DAF1BF99
:10044C00EFF25FF2411185451305000402C202C4AC
:10045C0002C6EF00902093078003372401407C8272
:10046C00C1474C003EC6130504808D473EC4112382
:10047C002945EF00F03F130504800546A145F12BFB
:10048C00130504800546C145C92B0546930500029A
:10049C0013050480D92337950A20130505DCEF607A
:1004AC00206A37950A20130505DEEF6060693795E1
:1004BC000A20130585DFEF60A06837950A20130525
:1004CC0005E1EF60E0674101C1B59307F5FF93F7D4
:1004DC00F70F09476363F700D5BD8280EFF29FE801
:1004EC004111AA852AC60545CD37B2450945F13FCC
:1004FC00B2450D45D93F410141BDB7270C2003C77B
:10050C0087BF6306A70E238CA7BE9D4763E1A70E8A
:10051C00EFF25FE5B7970A20938707F33345F52091
:10052C001C41828701455D3F37950A20130585E202
:10053C00EF60006191BD0545553737950A201305CD
:10054C0085E4FDB7B7670D2083C547CA054593B54C
:10055C001500AD3D37950A20130585E6D1BFB76769
:10056C000D2083C557CA094593B5150085353795B8
:10057C000A20130585E86DBFB7670D2083C567CAD0
:10058C000D4593B51500993537950A20130585EA65
:10059C0045B70145A13737950A20130545EC49BFEE
:1005AC0037640D20834544CA0545130444CA93B5EA
:1005BC001500293D0C30094593B51500013D3795C3
:1005CC000A20130545EEADB737640D20130444CA59
:1005DC000C30094593B51500D53B2C200D4593B532
:1005EC001500ED3337950A201305C5F091B78280BD
:1005FC00B7870C209C23411193F7F70FDC87888772
:10060C004101828037670D20832707CA2145850762
:10061C002320F7CA13074006B3F6E70289E6B3D7DF
:10062C00E70213F577008280EFF2DFD3E5653795AB
:10063C000A20938585F0130505F5EF60E03B3795AF
:10064C000A20130585F7EF60203B37950A20130528
:10065C0045F9EF60E04E0DBBEFF25FCE792AEF006B
:10066C00301A716513050520EF00B02437950A2068
:10067C001305C5FEEF60C04CB7670D2083A587CA74
:10068C0037950A2013058501EF600037713F4D3B0C
:10069C001305401FEF00D01D37950A201305C50226
:1006AC00EF60004A8545054515331305803EEF0084
:1006BC00301C81450545193B1305401FEF00501BAD
:1006CC008545094521331305803EEF00701A81459D
:1006DC000945ED391305401FEF00901985450D456F
:1006EC00F5311305803EEF00B01881450D45F93901
:1006FC0037950A201305C504EF60804437950A200E
:10070C0013054506EF60C04301458923814501452A
:10071C00952337950A2013058508EF6060423795BD
:10072C000A201305850AEF60A04137950A201305AE
:10073C00C50CEF60E04003ACC18803AA018383AA17
:10074C00418303AB81888149B79B0A20653DA14C4D
:10075C00AA8437890C20631B9503593D0329490052
:10076C002A84DA854A85EF50001C635CA004638AF6
:10077C0084044A85EF5080242A86AE8613850B1498
:10078C00A285EF60602722858D3B25A8AA852300D2
:10079C00A90037950A205286D68623228901130593
:1007AC004511EF6060252685893B99350329490061
:1007BC002A84DA854A85EF5000176354A000E318A9
:1007CC0094FB13054006EF00B00A8509A947B3F75F
:1007DC00F902ADFFB7670D20938647CA03C647CA17
:1007EC00B7270C20B82283C587BF943237950A20CF
:1007FC0013054517EF60402091BFB7170240D44353
:10080C0098472146B18A6394C602B7060070758F6B
:10081C00370600506309C7146360E6021DC7B7476B
:10082C009C1CB7060040938707806307D706B787E1
:10083C007D01938707848DA0370600606306C7107F
:10084C00B767730793870794CDB79047944798473A
:10085C009305000A93F6060E21831377F7037D8A1E
:10086C0005076398B608B767CD1D9387075033D734
:10087C00E702B7070C2093870732B2979C23914667
:10088C00B387E7026309D600856693860654B3D610
:10089C00C600858A91C2858337670D202326F7CA47
:1008AC0037160240544237070C2013070731918248
:1008BC00BD8A36971823B7260C209386C6BFB3D7AC
:1008CC00E7005842416641830D8B36971823B76673
:1008DC000D2033D7E70023A8E6CAB7F600E083A6BD
:1008EC0006D1F18E91E2BA8737670D202324F7CA1F
:1008FC0082809305000E6392B602D45BB7070C207E
:10090C0093870730C182B6979C23B7867D01938667
:10091C000684B387D702858399BF93070008639732
:10092C00F600B7479C1C9387078091B79307000C80
:10093C006397F600B7677307938707940DBFB78764
:10094C007D019387078425B7D85BB7070C20938765
:10095C0007304183BA979C2337877D01130707849F
:10096C00B387E7020DBFB767CD1D938707502DB72F
:10097C0001A09C4503D8050013F7070193F8F70075
:10098C001DCB584D93E8180081468D4E414E3316C1
:10099C00D0283373C800631C66001393160033967B
:1009AC006E003377C740D04133166600518F8506F1
:1009BC00E39FC6FD58CD1377F80F1DCF1841814624
:1009CC00130380023D4E930E8004A1453316D028AC
:1009DC00337FC800631EE6016395670650C9139602
:1009EC002600331FCE003396C8003377E741518F72
:1009FC008506E39DB6FC18C11307F00F637207055B
:100A0C0054410146130E8002930E800421431307B8
:100A1C0086003317E028B375E800631FB7006396B0
:100A2C00C70358C913172600BD45B395E500339786
:100A3C00E800B3F6B640D98E0506E31A66FC54C13D
:100A4C008280E39ED7F910C959BFE39DD7FD18C921
:100A5C00D1BF0CC982804CC9828019C20CC982805A
:100A6C004CC98280371701409D479306078063F875
:100A7C00B702938785FF93F7F70F631AD506B7066E
:100A8C0001408C468A073D473317F70033F7E540A2
:100A9C0098C69846B317F600D98F9CC68280630817
:100AAC00D502930707C0630AF508631CE5163707E0
:100ABC000140544B8A05BD47B397B700B3F7F640D6
:100ACC005CCB5C4BB315B600DD8D4CCB828037070D
:100ADC00014054438A05BD47B397B700B3F7F640BE
:100AEC005CC35C43B315B600DD8D4CC382809306AA
:100AFC0007C06304D5026312E510B70601408C4EA3
:100B0C008A073D473317F70033F7E54098CE984EE8
:100B1C00B317F600D98F9CCE8280B70601408C4A61
:100B2C008A073D473317F70033F7E54098CA984AD0
:100B3C00B317F600D98F9CCA8280370701405447FF
:100B4C008A05BD47B397B700B3F7F6405CC75C475F
:100B5C00B315B600DD8D4CC78280372701401307D3
:100B6C000780AE876318E5043707014054538A05A4
:100B7C00BD47B397B700B3F7F6405CD35C53B315DE
:100B8C00B600DD8D4CD382803727014013070780D8
:100B9C006312E502B70601408C568A073D473317AE
:100BAC00F70033F7E54098D69856B317F600D98F6F
:100BBC009CD6828037270140130707C06317E508CE
:100BCC008A073D473317F7003316F6009D47134746
:100BDC00F7FF63FBB700B7070140945B758F98DB99
:100BEC00985B518F98DB8280B7070140D457758F83
:100BFC00D8D7D857518FD8D7828013070740E31521
:100C0C00E5F8B70601408C528A073D473317F700C9
:100C1C0033F7E54098D29852B317F600D98F9CD28F
:100C2C00828013070740E31AE5F237070140544F5F
:100C3C008A05BD47B397B700B3F7F6405CCF5C4F5E
:100C4C00B315B600DD8D4CCF82808280B7C700E033
:100C5C001305050437F700E03345F5201C41032547
:100C6C0007D11355054922051315F5291D8D13358B
:100C7C0015008280B7F700E083A707D193F5F50F35
:100C8C0037C700E093D70749A207CD8F3345E5203E
:100C9C001CC18280B7170240D44398472146B18AC1
:100CAC006394C602B7060070758F37060050630E4A
:100CBC00C7146360E6021DC7B7479C1CB70600400B
:100CCC00938707806307D706B7877D0193870784CF
:100CDC008DA037060060630BC710B7677307938747
:100CEC000794CDB79047944798479305000A93F61D
:100CFC00060E21831377F7037D8A0507639DB608DB
:100D0C00B767CD1D9387075033D7E702B7070C2081
:100D1C0093870736B2979C239146B387E702630902
:100D2C00D600856693860654B3D6C600858A91C2D2
:100D3C0085831CC137160240544237070C20130719
:100D4C0007359182BD8A3697182393864181B3D794
:100D5C00E7005842416641830D8B36971823B7F64E
:100D6C0000E033D7E70058C183A606D1F18E91E29B
:100D7C00BA871CC5371602405C4263DD07085C422B
:100D8C0037479C1C13070780AD83FD8B95073357A2
:100D9C00F70258C582809305000E6392B602D45BAD
:100DAC00B7070C2093870734C182B6979C23B7866C
:100DBC007D0193860684B387D7028583B1B79307E9
:100DCC0000086397F600B7479C1C938707802DBFDC
:100DDC009307000C6397F600B76773079387079424
:100DEC0025B7B7877D019387078439BFD85BB707D1
:100DFC000C20938707344183BA979C2337877D0156
:100E0C0013070784B387E70225B7B767CD1D938710
:100E1C00075005B75442B7270C20938747C0AD82C3
:100E2C009D8AB6978C235C42B7260C20938606C00D
:100E3C00B9838D8BB6979C233357B70089BF99C55F
:100E4C00371702401C4FC98F1CCF8280B717024046
:100E5C00984F3375A74088CF828099C537170240C9
:100E6C005C4FC98F5CCF8280B7170240D84F337567
:100E7C00A740C8CF828099C5371702401C53C98F31
:100E8C001CD38280B717024098533375A74088D380
:100E9C008280371702401C4309C5939747291CC30E
:100EAC00828093974749E5BF371702401C4309C519
:100EBC00939767291CC3828093976749E5BF3717BF
:100ECC0002405C4309C5939767295CC38280939762
:100EDC006749E5BF371702405C4309C593977729EB
:100EEC005CC3828093977749E5BFB7170240D85B04
:100EFC00719BD8DBD85B498FD8DB8280B717024057
:100F0C00D85B4D9BD8DBD85B498FD8DB8280B71779
:100F1C000240D85BF9769386F60F758FD8DBD85BD9
:100F2C00498FD8DB82801E294A25ED8F3345050871
:100F3C0089C76D8D3335A00082800145828093C5B1
:100F4C00F5FFB3C505080EA98280EFF2AFC11A29CF
:100F5C00F577FD177D8FFE2196254111D98F1EA99E
:100F6C00DE215A252A84D58FB625AE84D58F8D6681
:100F7C009386369F758FD98F5EA55E29DA25B3C708
:100F8C00070893F7F7CFD98F5EA90A8521339247CB
:100F9C0065459040B335F50281460A063305F502E6
:100FAC00EF20902093064006B357D5021306F0634A
:100FBC0013974700B377D502920793872703637A79
:100FCC00F60093070701B3C707081EA441016FF091
:100FDC00AFBBB3D7D702D98FFDB75E2589C5939721
:100FEC00D7285EA5828079777D17F98FDDBF93F5C1
:100FFC00F51F4EA182800A216D8D3335A0008280B1
:10100C00B7670D2083A707CB37470F0013070724BB
:10101C00B3D7E70237670D20231CF7CA1307803EAE
:10102C00B387E70237670D20232AF7CA8280B7F708
:10103C0000E0D843759BD8C337670D20035787CB87
:10104C009387070823A407003307A70298CB1147FF
:10105C0098C398431367170098C3B7F700E0D843B9
:10106C00098B75DF938707089843799B98C3828017
:10107C00B7F700E0D843759BD8C337670D2003271B
:10108C0047CB9387070823A407003305E5021147D4
:10109C0088CB98C398431367170098C3B7F700E041
:1010AC00D843098B75DF938707089843799B98C3BE
:1010BC008280EFF22FAB01112A848545254502C2AF
:1010CC0002C402C602C802CA02CC02CE79338545DC
:1010DC00130500104D33B71401402D46138504C081
:1010EC009145EFF03F98C1477C828D473EC44C0040
:1010FC00E147138504C03EC6EFF0BF87B707080071
:10110C000C08372500403ECC22C802CA231E010021
:10111C002D3D854537250040C93505616FF0CFA6BB
:10112C00EFF24FA42E893284814463C5840022855A
:10113C006FF08FA593050004372500406D3D7DD9D8
:10114C00B307990083850700372500408504B3C594
:10115C000508713DD9BFAA8703A5818137870E2069
:10116C001307C71AAA9763EBE7003707102013077A
:10117C0007806365F70023ACF18082807D55828007
:10118C00EFF24F9EB7670D20054423A687CEB767B5
:10119C000D2083D7A7D1B7660D2093F7F70FEDC3BA
:1011AC00B7650D200D679387C5D31307576EFAA348
:1011BC0082A737F700E01847C14423AE86CCBAA308
:1011CC004183DAA31307D04DBAA784CB23A607001B
:1011DC00B7670D2023A407CEB7670D2023A207CE37
:1011EC00B7670D2023A007CEB7670D2023AC07CC23
:1011FC00B7670D2023AA07CCB7670D20238807CC2F
:10120C00B7670D2023A607CCB7670D2023A207CC08
:10121C006577B7670D20130707C123A007CCB72745
:10122C000C20239EE5D2938707CC23A2F1823705AD
:10123C000E20B7270C20938707CB1309C5FA41461C
:10124C009385C5D31305C5FA23A0F182EFF08F94D3
:10125C00B747034023A6270D2393970C2384870CB1
:10126C00376702408347078093E717002300F78016
:10127C00B7E700E03707000123A6E7106FF0CF9027
:10128C0023AE06CC3767024083460780930707805E
:10129C0093F6E60F2300D78037E700E0B70600018E
:1012AC002326D7180F10000098331367670098B3E4
:1012BC0098331377970F98B3D1B7B7670D200546BE
:1012CC0023A6C7CEB7670D2083D7E7CFB7660D200F
:1012DC0093F7F70F638F070EEFF2CF8837F700E025
:1012EC00FD571CCBB7650D20B5471CC39387C5D3E1
:1012FC0023930700239407001847414423AEC6CC20
:10130C00BAA34183DAA380CB2395070023A6070059
:10131C00B7670D2023A407CEB7670D2023A207CEF5
:10132C00B7670D2023A007CEB7670D2023AC07CCE1
:10133C00B7670D2023AA07CCB7670D20238807CCED
:10134C00B7670D2023A607CCB7670D2023A407CCC5
:10135C00B7670D2023A207CC6577B7670D2013075D
:10136C0007C123A007CCB7270C20239EE5D2938777
:10137C0007CC23A2F18237850D20B7270C20938749
:10138C0007CB930405D541469385C5D3130505D5E5
:10139C0023A0F182EFF00F803707034024C3231002
:1013AC00870A8347270A93F7C70F93E72700230180
:1013BC00F70A376702408347078093E7170023003B
:1013CC00F780B7E700E03707000123A6E7106FE0CE
:1013DC00BFFB23AE06CCB7F700E023A007003767AE
:1013EC000240834607809307078093F6E60F23009D
:1013FC00D78037E700E0B70600012326D7180F1077
:10140C00000098331367670098B398331377970FDE
:10141C0098B38280EFE21FF5B7670D2083A7C7CC86
:10142C0089E7B7670D20238807CC03A50182B76530
:10143C000D201384C5D341469385C5D3EFE09FF5AA
:10144C001C30F59B1CB0C1471CC86FE0FFF3B7669E
:10145C000D2083A7C6CE37670D209305C7D385070C
:10146C0023A6F6CEB7F700E09C471307C7D313C6E5
:10147C00F7FF935706019EA583A7C6CEF2A19D8BBD
:10148C0091E73E27850793F7F77F3EA737650D2039
:10149C00835725CDB7660D2003A686CD9207636CC6
:1014AC00F60023AC06CCB7670D2023AA07CCB76790
:1014BC000D2023A007CC03A686CDB7670D2049CEFF
:1014CC0037660D20834506CDC1E985452308B6CC8A
:1014DC0037660D20832506CC37280C20130808CA44
:1014EC00C105C29523A0B18203A886CD832806CC62
:1014FC00835525CD469892056363B80C835525CD4D
:10150C00032806CC9205B3850541C10523A6B7CCAB
:10151C0083A8C7CC85651388F5BF637618019385BE
:10152C0005C023A6B7CC83A5C7CC032806CCC2958F
:10153C00C1152320B6CC835525CD032506CC9205A9
:10154C006364B500232006CC83A5C7CC03A686CD47
:10155C0041060D8E23ACC6CC83A6C7CC638E061079
:10156C0083A6C7CC1315B028637AD50803A6C7CCBD
:10157C008566938606C063E3C608B7660D2003C66E
:10158C00A6CB89456310B6048547238DF6CA83A77D
:10159C000182B706034093870740BCC29307004003
:1015AC001CCB1E2B370703402310F70A8347270A4F
:1015BC0093F7C70F93E727002301F70A828083A5CF
:1015CC0086CDA1B7054863120603238D06CA83A6F0
:1015DC00018237060340AA9634C283A6C7CC9386F1
:1015EC00068014CB23A607CC6DBF45FE238DB6CA4F
:1015FC0083A60182B7070340B4C34DB783A6C7CCFB
:10160C00130600406377D60483A5C7CC9316B02885
:10161C0063E1B604B7660D2003C5A6CB8545631000
:10162C00B502238D06CA83A6018237060340938632
:10163C00064034C283A6C7CC938606C05DB735F18D
:10164C00238DB6CA83A60182B7070340B4C310CB5F
:10165C0089BF03A6C7CC93060040E3E4C6F403A6F7
:10166C000182B7060340B0C283A6C7CC14CBB766C1
:10167C000D20238D06CABDB7B7660D2003A606CE76
:10168C0085476318F6001C3323A006CE93E727008A
:10169C001CB3C1471CCB83A601823707034034C35C
:1016AC0021B737670D208327C7CEB7650D2013866A
:1016BC00C5D385072326F7CEB7F700E09C4793C622
:1016CC00F7FF93D706011EA68327C7CE76A21387F2
:1016DC00C5D39D8B91E73E27850793F7F77F3EA7F0
:1016EC0037680D20835728CDB7660D2003A686CD0D
:1016FC009207636CF60023AC06CCB7670D2023AAC7
:10170C0007CCB7670D2023A007CC83A786CDB7687D
:10171C000D20E1CB83C708CDE9E737660D20832781
:10172C0006CC37250C20130505CAC107AA9723A0A0
:10173C00F18203A586CD032E06CC835728CD729556
:10174C009207636DF508835728CD032506CC9207C5
:10175C00898F032506CCC1071CCB41153E95232050
:10176C00A6CC035528CD032806CC12056364A8002B
:10177C00232006CC37660D202326F6CC0326C6CCB8
:10178C00B7670D2023A4C7CC03A5018237480340BB
:10179C00376E0D202326A80C032307011376F33F85
:1017AC009357A30039CE3346060885072313C80C7C
:1017BC0013F6F70F2304C80C2322FECCC14763FA9F
:1017CC00670485472388F8CCC1471CCB1C334146A2
:1017DC009385C5D3F59B1CB36FE0DFBB83A786CD88
:1017EC008DBF37660D20032506CE85476318F5009F
:1017FC001C33232006CE93E727001CB3C1471CCB18
:10180C0061B737660D200326C6CC29821376F60FF6
:10181C0055B737660D20832786CC81CF032886CC1D
:10182C0083A786CDC107B387074123ACF6CC23240D
:10183C0006CC238808CC49BF376702408347078111
:10184C0013070780898BC9C37623B7670D20B3C6EE
:10185C0006082399D7CC894614ABB7660D2003D75D
:10186C0027CD03A686CD329723ACE6CC37670D2067
:10187C0083D627CD032647CDB296232AD7CC83D641
:10188C0027CD032647CD92066364D600232A07CCC6
:10189C0037660D20832586CE03D527CD032847CD6B
:1018AC00858983A64182D5CD83D527CD42959205D6
:1018BC00636DB508B767024093870780D4C7832749
:1018CC0086CE85072324F6CEB767024003C707816F
:1018DC0093870780118B19C3114798AB982B058BF5
:1018EC001DCB054798ABB7670D2083A7C7CD858B5C
:1018FC009DC3B7F700E09847B7670D209387C7D310
:10190C00BAA34183DAA337670D20232407CE98337B
:10191C001347170098B3B767024003C70781938733
:10192C000780418B01CB414798ABB7670D2005472A
:10193C0023A0E7CEB767024003C7078193870780D0
:10194C00218B19C3214798AB8280032747CD83D7BE
:10195C0027CDB697BA9737670240130707805CC745
:10196C00B9BF83D527CD429592056368B500B7679B
:10197C0002409387078094C799B7032747CD83D735
:10198C0027CDB697BA9737670240130707801CC755
:10199C003DB7B7670D2003C707D09307100A630440
:1019AC00F70001458280B7660D2083D7C6CF194753
:1019BC00A183636BF70437970A2013074720B3C73B
:1019CC00E7209C43828783D7C6CF93F7F70FA1C339
:1019DC0005476387E70683D7C6CF0547A183E39204
:1019EC00E7FC37670D208357E7CFD146A183638887
:1019FC00D7008357E7CF2547A183E394E7FAB717BE
:101A0C000C201947A38CE7761305F00F8280B7677B
:101A1C000D2003C717D093071008E31EF7FAB7671A
:101A2C000D2083D7E7CF1307F003A183B387E70219
:101A3C0037170C201307076D9387B702BA9731A895
:101A4C00B7670D2083C717D019479387F7F7E3645F
:101A5C00F7F8B7070C20938707381CC1ADBFB767E1
:101A6C000D2083C717D019479387F70793F7F70F04
:101A7C00E363F7F637970A2013070722B3C7E7206B
:101A8C009043B7170C2037670D209387471A0357DD
:101A9C00E7CF21830286B7670D2083C717D019477C
:101AAC009387F70793F7F70FE367F7F237970A2057
:101ABC0013070722B3C7E7209043B7170C203767EB
:101ACC000D20938787CBE1B7B7670D2083C717D05D
:101ADC0019479387F70793F7F70FE36EF7EE3797EE
:101AEC000A2013070722B3C7E7209043B7170C202F
:101AFC0037670D209387479C59BFB7670D2083C765
:101B0C0017D019479387F70793F7F70FE365F7ECAF
:101B1C0037970A2013070722B3C7E7209043B7076C
:101B2C000C2037670D209387C73995B71306F00340
:101B3C003307C7021307B70211B71306F0033307B5
:101B4C00C7020D07E5BD1306F0033307C7023507BF
:101B5C00F5B51306F0033307C7025D07C5B51306C9
:101B6C00F0033307C7020507D1BD1306F003330793
:101B7C00C702E9B51306F0033307C70213071702B0
:101B8C0075BDB7670D2083C7D7D10547FD8B63841F
:101B9C00E70001458280B7660D2083D786D11947AF
:101BAC00A1836362F70237970A201307C723B3C7D1
:101BBC00E7209C43828783D786D193F7F70FA1C385
:101BCC0005476387E70683D786D10547A183E39250
:101BDC00E7FC37670D208357A7D1D146A1836388D3
:101BEC00D7008357A7D12547A183E394E7FAB7170A
:101BFC000C201947A38CE7761305F00F8280B7678A
:101C0C000D2003C7C7D193071008E31EF7FAB76777
:101C1C000D2083D7A7D11307F003A183B387E70265
:101C2C0037170C201307076D9387B702BA9731A8A3
:101C3C00B7670D2083C7C7D119479387F7F7E364BC
:101C4C00F7F8B7070C20938707381CC1ADBFB767EF
:101C5C000D2083C7C7D119479387F70793F7F70F61
:101C6C00E363F7F637970A2013078725B3C7E720F6
:101C7C009043B7170C2037670D209387471A0357EB
:101C8C00A7D121830286B7670D2083C7C7D1194717
:101C9C009387F70793F7F70FE367F7F237970A2065
:101CAC0013078725B3C7E7209043B7170C20376776
:101CBC000D20938787CBE1B7B7670D2083C7C7D1BA
:101CCC0019479387F70793F7F70FE36EF7EE3797FC
:101CDC000A2013078725B3C7E7209043B7170C20BA
:101CEC0037670D209387479C59BFB7670D2083C773
:101CFC00C7D119479387F70793F7F70FE365F7EC0D
:101D0C0037970A2013078725B3C7E7209043B707F7
:101D1C000C2037670D209387C73995B71306F0034E
:101D2C003307C7021307B70211B71306F0033307C3
:101D3C00C7020D07E5BD1306F0033307C7023507CD
:101D4C00F5B51306F0033307C7025D07C5B51306D7
:101D5C00F0033307C7020507D1BD1306F0033307A1
:101D6C00C702E9B51306F0033307C70213071702BE
:101D7C0075BDD9347300203083C7C181854613F7F4
:101D8C00F70F6386D70089476300F7028280B76735
:101D9C00024023920780130700202393E780B76744
:101DAC000D202399E7CC8280B76702402392B7803D
:101DBC000605334505082393A780B7670D202399A3
:101DCC00A7CC8280EFE20FDA37140140130404C071
:101DDC001319B028232824019304004004C81305C8
:101DEC002003EFF0CFA413052003232A2401EFF0E6
:101DFC000FA444C86FE04FD9EFE2CFD6371401409F
:101E0C00130404C09314B02844C813052003EFF046
:101E1C000FA2930700401CC813052003EFF02FA15D
:101E2C001305200304C8EFF08FA06FE0EFD5EFE2AD
:101E3C00CFD1AA842149371A0140931AB0289309AB
:101E4C00004013070AC09397446063D70706232802
:101E5C00570113052003EFF08F9D13040AC02328AC
:101E6C003401130520037D198604EFF04F9C137980
:101E7C00F90F232A340193F4F40FE31409FC5C40AA
:101E8C00C574FD14E58F9397F728130520035CC0E8
:101E9C00EFF0EF991305200323283401EFF02F996D
:101EAC000844232A34015C400D671355B548E58F6F
:101EBC00D98F5CC06FE0AFCC232A570159BFEFE23A
:101ECC006FCAAE842A89FD3D130500068D372A841E
:101EDC0013054006EFF0AF954A85913F498C1305E9
:101EEC004006EFF0CF942685993711C50544293764
:101EFC0022856FE06FC91374F40F33348000C5BFB3
:101F0C00EFE24FC685452A841305F00F4D3F93052C
:101F1C00000849456D371545EFF08F9585476307E8
:101F2C00F4008947630DF4026FE00FC637940A2062
:101F3C0013044428930444160C3008200904413738
:101F4C00E31C94FE37940A201304442793040401E1
:101F5C000C3008200904A537E31C94FEF1B7379424
:101F6C000A201304843E930484140C3008200904C2
:101F7C00B937E31C94FE4DBF93773500B9EFEFE210
:101F8C006FBE93F73500AA842E840945A9E78145D5
:101F9C001305F00F2D3791451305000E0D3793D512
:101FAC00240093F5F50F1305A005113F935524005C
:101FBC0093F5F50F1305B005193793D5A4002180BF
:101FCC008D891188C18D1305C005D53D814513053B
:101FDC00000EF53501456FE02FBB05458280EFE221
:101FEC006FB82E84AA8481451305F00FC93DA685D0
:101FFC001305300DE93585451305F00FC935A2855C
:10200C004545753D6FE04FB8EFE2CFB585476307A7
:10201C00F50089476309F5006FE00FB7814513059B
:10202C004002753FD5BF81450545E5BFEFE28FB353
:10203C008547B7640D2037640D206304F50289478A
:10204C00630BF50603D5E4CB8355C4CB353303D5ED
:10205C00E4CB8355C4CB0D3703C5C18175376FE015
:10206C00AFB2B7670D2083C607D111476395E6025F
:10207C0037670D20034737D119CFB7970A20FD15C5
:10208C009387071FB3C5F5209E21239FF4CABE2159
:10209C00231EF4CA45BF03C707D19147E314F7FACF
:1020AC00B7670D2083C727CFD1DFB7970A20FD155F
:1020BC009387C71DC1BFB7670D2083C607D11147D2
:1020CC00639DE60037670D20034737D119C7B797D3
:1020DC000A20FD159387871C75B703C707D1914755
:1020EC00E312F7F6B7670D2083C727CFA1DFB797A9
:1020FC000A20FD159387471B71B7EFE2AFA6B71700
:10210C0002409C4737070070F98F370700406388FF
:10211C00E7020145EFE0FFD70145EFE01FDD014588
:10212C00EFE0DFDD0145EFE09FDE0545EFE07FD618
:10213C00B7160240370720009C42F98FF5DF0545A2
:10214C00EFE05FD985451315B028EFE05FCF6FE066
:10215C00AFA337670D20834787D093F7F707230486
:10216C00F7D0B7670D2083D6C7CF13070010639342
:10217C00E602B7070340D8331377070FD8B3D83329
:10218C0013671700D8B3370703405C3393E707088E
:10219C005CB3828083D6C7CF13070020639CE60014
:1021AC00B7070340D8331377070FD8B3D833136767
:1021BC002700C9BF83D6C7CF13070030639CE60046
:1021CC00B7070340D8331377070FD8B3D833136747
:1021DC0087004DBF03D7C7CF93070040E315F7FA2D
:1021EC00B7070340D8331377070FD8B337170C2032
:1021FC001307C77CF8C7130750032396E70A094750
:10220C002387E70AD83313674700ADBFB7070340EE
:10221C004D479AAB0D47BAAB13070004F8CF130721
:10222C000020B8D337870D20130707F598D33767ED
:10223C000D20130707D5D8D3B8C303D7C70B136723
:10224C002700239EE70A239E0708238F07080947C8
:10225C00A38FE708A381E70A2390070A2381070AC3
:10226C008280EFE22F9001C5493D6FE0EF918145EF
:10227C001315B028EFE0BFBC0145EFE0BFC5B717A1
:10228C0002409C4737070070F98F37070040E38EF8
:10229C00E7FC0145EFE0FFBFC9BFEFE2AF8C1DC506
:1022AC00A93D37040340A5471CA09307F0053CA0AB
:1022BC00B13F85471CB0930780FB1CA0370700017A
:1022CC00B7E700E023A2E7106FE00F8CB7070340DD
:1022DC000D4798A3B7E700E03707000123A2E718E2
:1022EC000F100000BD3FCDB7011126CC22CE4ACA3B
:1022FC004EC852C656C45AC2B704034094249C34E8
:10230C0013F7F60FC18AE381060493F7F70F13F75F
:10231C007700C18B6395077211CF8547630AF770FD
:10232C007244E2445249C249324AA24A124B0561F4
:10233C007300203083C7F40937690D2037640D20F2
:10234C0093F7F707A38FF40883C7F409A18B638075
:10235C000766B78A0D2013870AF51C23B7650D2075
:10236C0036232300F9D01C3337660D20A380F5D01B
:10237C007E235A23231DF4CEB7670D20239FD7CE7F
:10238C00231EE6CE034A09D093860AF5137A0A0671
:10239C00630C0A08834709D09397476063D30706F9
:1023AC00376A0D2013054AD0EFF0AFDE1375F50F29
:1023BC009307F00F6302F5060357A4CF9307F003BE
:1023CC009304000463E6E7008354A4CFB3C4040869
:1023DC0083294AD0268613850AF5CE85A699EFD097
:1023EC007FFB23223AD1834709D09397476063D46C
:1023FC00075A8357A4CF63970756B707034019476B
:10240C000DA0034709D0930710026317F70003C709
:10241C0015D08547E309F7FCB70703401547238F11
:10242C00E708A38FE708EDBD83C515D02D4513F73D
:10243C00F50FE363B5FEB7950A2093850553334733
:10244C00B7201843028703D7E7CF9946B7690D2009
:10245C0021837D171377F70F63E3E60EB7960A20F7
:10246C00938606563347D72018430287B7A70A200E
:10247C00938707AB842323A2F9D091A0B70703401D
:10248C00B827B7660D20B7670D2013174760635A3E
:10249C0007060547238AE7CE13070020239BE6CEC9
:1024AC0003C747CF85476313F706B7A70A2093875F
:1024BC00478CA433B82323A2F9D0A204D98C835718
:1024CC00A4CF63F4F400231D94CE0357A4CF930739
:1024DC00F0039304000463E6E7008354A4CFB3C471
:1024EC00040803AB49D0268613850AF5DA85EFD0AC
:1024FC007FEA269B23A269D19307F00FE30EFAF033
:10250C00DDB5238A07CE1307000449BFB7A70A20FD
:10251C009387878879BF83D7E7CF094793F7F70F5E
:10252C006388E702636AF70099EF93870189842334
:10253C0023A2F9D0014A61B70D476380E7028144B9
:10254C00130AF00FADBFB7970A209387C7641DB766
:10255C00B7970A209387C76231BFB7970A20938732
:10256C00476109BFB7A70A209387C78721B7B76709
:10257C000D2083C647CF0547639DE602B7A70A2007
:10258C0093878788A433B823B7A50A20A204D98CD3
:10259C0037250C201386E4FF9385A58813056580E9
:1025AC00EFD05FDFB7270C209387478023A2F9D0A9
:1025BC0039B783C747CF13FAF70FD1F3B7A70A2060
:1025CC009387478CA433B823B7A50A20A204D98CCF
:1025DC0037250C201386E4FF9385658C1305258421
:1025EC00EFD05FDBB7270C2093870784C1B783D765
:1025FC00E7CF37670D2093F7F70F230CF7CEE5B332
:10260C00B7670D2083C797CF9CA20357A4CF8547EC
:10261C00E3FBE7DC231DF4CEF9B383D7E7CF3767B1
:10262C000D2093F7F70FA30CF7CEB7670D200547D6
:10263C002389E7CEB7670D2011472388E7D065B310
:10264C00034709D07D8B0DE383D7E7CF054793F77D
:10265C00F70FE393E7DC37670D20834737CF93F70A
:10266C00E70FA309F7CE41B3034709D089467D8B09
:10267C00E314D7DA83D7E7CF93F7F70FE39E07D8A6
:10268C008357C6CF9306100893F7F70F638FD702C3
:10269C0063E0F6028D46638FD70295466386D704B6
:1026AC008546E39BD7D6B7070340A381E70A25BB32
:1026BC00130740086385E70213076008E39EE7D41D
:1026CC00B7070340238B070A39BBB70703402381A5
:1026DC00070A11BBB7070340A385E70A29B3B7075D
:1026EC0003402387070A01B3B7070340A389E70A0E
:1026FC00DDB9034709D07D8B45E303D7E7CF85468A
:10270C001377F70F6312D704B7660D2083C746CF34
:10271C006399E700B7A70A2083C7B78C93F7070222
:10272C0089EF83C746CFE39907CEB7A70A2083C7A3
:10273C00F78893F70702E38107CE37670D208347AD
:10274C0037CF93E7170031BF83D7E7CF094793F70C
:10275C00F70FE393E7CC0357C6CF9307001063043E
:10276C00F7020357C6CF93070020630EF7000357F9
:10277C00C6CF930700306308F7000357C6CF930703
:10278C000040E312F7C637670D20834787D093E7E5
:10279C0007082304F7D081B9034709D089467D8BFC
:1027AC00E313D7C483D7E7CF93F7F70FE39D07C2A3
:1027BC008357C6CF1307100893F7F70F638BE70403
:1027CC006366F7020D476381E70615476384E708E4
:1027DC000547E393E7C4370703408347370A93F76A
:1027EC00C70F93E71700A301F70AF5BE13074008BC
:1027FC006387E70413076008E390E7C237070340D9
:10280C008347670B93F7C70F93E71700230BF70A60
:10281C00D9BE370703408347270A93F7C70F93E7BF
:10282C0017002301F70AC1B6370703408347B70ADD
:10283C0093F7C70F93E71700A305F70A6DB6370791
:10284C0003408347E70A93F7C70F93E71700230763
:10285C00F70A51BE370703408347370B93F7C70F6F
:10286C0093E71700A309F70ABDBE2380060071BBCE
:10287C00EFE0BFA48DBE834709D023980AF4094723
:10288C00FD8B639EE70A0357C6CF13061008137718
:10289C00F70F6305C7066363E6020D46630DC706B3
:1028AC0015466304C70885476302F7040357A4CF92
:1028BC008947E3F3E7B6231DF4CEB9BE13064008EF
:1028CC006300C706130660086306C70613062008D4
:1028DC00E31EC7FC370703400347670A0D8B054609
:1028EC006313C70098A20357A4CF1DB3B7070340C7
:1028FC0083C7370A8D8B6393E7009CA2B70703400D
:10290C0083C7270A05478D8B6393E7009CA2035767
:10291C00A4CF8947F5B9370703400347B70A7DBFF2
:10292C00370703400347E70A55BF37070340034700
:10293C00370B6DB7370703400347670B45B7834722
:10294C0009D0FD8B81CB8357A4CFE37EF7A8231D41
:10295C00E4CE51BCB7670D2083C737CF858BE5D745
:10296C0098A2D5B70357A4CF9307000463E6E700FA
:10297C008357A4CFB3C707080357A4CF1D8F334782
:10298C000708231DE4CE37070340231EF708994799
:10299C00230FF70871B28357A4CFE39007A6B707AC
:1029AC000340239E07081947238FE70895BAA38F86
:1029BC00040883D7C407034709D0B3C707081377A4
:1029CC00070635C3231D04CE37670D20034717D0E8
:1029DC006947639AE70437870D20130707F5B76437
:1029EC000D203C23343303C714CF37690D206316F5
:1029FC00F700034709CF6308D70237070C201307EA
:102A0C0007383CA334B3238EF18003C5C181A3885E
:102A1C00F4CE2308D9CEEFF0AFCE834509CF03C552
:102A2C0014CFEFF0AFE08357A4CFE39B078E85BFA5
:102A3C0083C7340A93F7F707A381F40AD5B00DC7FF
:102A4C008547E31FF78C83C7240A93F7F707238185
:102A5C00F40A83C7240A93F7C70F2381F40AEFE023
:102A6C001F9FEFE03F9B6DB883C7E40937690D20CA
:102A7C0093F7F707238FF4088357A9CF81E799477A
:102A8C00A38FF408B7670D2083C707D093F7070609
:102A9C00C9E3B7670D2083C717D0954613F7F70F17
:102AAC006385D7089947631CF7080357A9CF930789
:102ABC00F0031304000463E6E7000354A9CF334486
:102ACC000408B7690D2083A449D037850D202286D0
:102ADC00A685130505F5EFD0FF8B8357A9CFA294DC
:102AEC0023A299D0818FB3C70708231DF9CEB7074E
:102AFC000340239E870803C7E70913474700238F2A
:102B0C00E70803C7E7091377C70F13672700238F5D
:102B1C00E708B7670D2083C787D093974760E3D149
:102B2C000780EFF00FE36FF0AFFFB7670D2083C79F
:102B3C0087CF3707034093F7F70F3CB3D9BFB707DD
:102B4C000340239E0708F1B79377070491C79307B7
:102B5C0000049CA46FF0CFFC9377270095CB89479A
:102B6C009CA4B824B7670D20098B19CB03C737CFAA
:102B7C0013672700A389E7CE83C737CF6FF04FFACF
:102B8C0003C737CF1377D70FA389E7CE6FF04FF971
:102B9C0093771700ADC7B7670D20A38C07CEB76727
:102BAC000D20238C07CEB7670D20A38907CEB767FE
:102BBC000D20238907CEA3810400EFF02FE50547F4
:102BCC0098A4B7670D2083C607D16387E60083C638
:102BDC0007D111476396E6F409472388E7D0B7E796
:102BEC0000E03707004023A2E7103707008023A23C
:102BFC00E710054551220545D1296FF06FF298A4D5
:102C0C006FF00FF237470140231207C2F956231811
:102C1C00D7C037060020B7E600E023A4C6108356C1
:102C2C00C7C093E616002316D7C0835707C093E797
:102C3C0017002310F7C08280371702401C43B716C9
:102C4C000240939767291CC3370780009C42F98F79
:102C5C00F5DF8280EFD20FF181450565EFE02F9E05
:102C6C000145EFE02FA70145EFE06FA5B717024034
:102C7C009C4737070070F98F6385E7000145EFE04B
:102C8C00AFA26FD06FF0EFD2EFED0DC17537854568
:102C9C000565EFE0CF9A0545EFE06FA20545EFE043
:102CAC006FA30545EFE04FA06FD00FEE6537EDBF7A
:102CBC00B7470340B85B13672700B8DBB85B759B5D
:102CCC00B8DB8280EFD20FEAE537B74703400947FC
:102CDC002390E7082391E70823A20708B7860E2064
:102CEC0023A40708138707089386C6FA54C714CB86
:102CFC00B7060E209386C6FA74C79306004023933A
:102D0C00D70C83C6070C93E616002380D70CB78626
:102D1C000D209386C6FA74CF4147238CE70C6FD0F5
:102D2C00AFE6EFD22FE40DC1B7470340B85B136792
:102D3C004700B8DB0547F8DB370707001307170216
:102D4C00B8DB49376FD04FE43744034091473CD848
:102D5C001C40B704008013878400D98F1CC0130556
:102D6C004006EFE0CFAC3C58DD14ED9B3CD81C404A
:102D7C00E58F1CC0C535F9B711C169B5B7E700E0DF
:102D8C003707002023A4E7180F1000003747014035
:102D9C008357C7C0B3C70708F99BB3C707082316E7
:102DAC00F7C0835707C0B3C70708F99BB3C7070819
:102DBC002310F7C08280EFD2EFDA37660D201C4962
:102DCC0058458325C6D089462A8463F8B600B74592
:102DDC00034094459396562994C56354071205678E
:102DEC00930607F0F58FB706008054C49306005085
:102DFC006398D700B7870D20239807F86FD0CFD8EA
:102E0C009316B028639CD702B7670D2003C797D0E1
:102E1C0075D713054006A38407D0EFE04FA1B74741
:102E2C000340376792009386871F1307877C98C2ED
:102E3C009387C71F054798C39C43C9B793060040A7
:102E4C006396D7045C40BD9B5CC0B7670D2003C77D
:102E5C0007D111E705472388E7D06D3345B783C603
:102E6C0007D109476399E6000D4701452388E7D050
:102E7C00EFF0AFC2DDB783C607D11147E390E6F898
:102E8C00238807D00545EFF04FC18DBF9306003066
:102E9C006394D7028546B7670D20A384D7D03767D4
:102EAC009200B74703401386871F1307875C18C22D
:102EBC009387C71F94C349B793060010E38CD7FCC4
:102ECC0093060020E388D7FC130707906391E70271
:102EDC00B7870D200545239807F8A135B7670D2056
:102EEC00A38907D05C40939707495CC001BF1307C7
:102EFC000060E395E7F0B7670D2005472388E7D01E
:102F0C0051B79377074091CB930700405CC4B767E8
:102F1C000D20A38907D01C48D5B5B7078000B37620
:102F2C00F70091CA5CC45C4093E707015CC05C404D
:102F3C0093E707085DBFB7074000B376F7008DC273
:102F4C005CC4930700287CD01C40858B99C7C16753
:102F5C0091073CD42326040655B5B7070200CDBF14
:102F6C00B7072000B376F700F9C65CC43C4C14409C
:102F7C0013F7071E858A85C6930700086318F700A8
:102F8C009307002A7CD023240406E9B79307000C8E
:102F9C00E316F7E67C489397E7297CC885B593063A
:102FAC00000A6316D7029307002C7CD02324040656
:102FBC00232604067C48114701459397E7297CC8D2
:102FCC00B7670D202388E7D0453B01456DBD9306BF
:102FDC0000046317D700A58393F7F70F5CBC39BDCA
:102FEC0093070002E31CF7E00327C6D08947E3E709
:102FFC00E7E03C4CB7860D2093F7074085C3B747F5
:10300C00034098431317072998C39843131717299C
:10301C0098C3930710102398F6F8CDB3B747034025
:10302C0098431317074998C398431317174998C324
:10303C00239806F8E1B389677D8FE30107DC5CC454
:10304C001C48898BE38C07DAB7670D200545A389EB
:10305C0007D0C1395C4093E707015CC00100010057
:10306C00010001005C40BD9B49B5BC596205A2073B
:10307C00A183BCD9BC595D8DA8D98280B7470340C8
:10308C00378783009386871F130727C198C29387BE
:10309C00C71F054798C3904337868D001306A69A21
:1030AC0090C298C39043374695001306064390C2CE
:1030BC0098C3904337069300410690C298C39C4333
:1030CC00374705B0B7C7035098CF8280EFD28FA98E
:1030DC005DC10545EFF03FBBB74703401307803494
:1030EC0098C34947D8C3378720001307073498C3C0
:1030FC0003D70705136707202398E7049843136742
:10310C00270098C33727E0801307074098C7376715
:10311C000D208326C7D009476376D700984713172D
:10312C00572998C7B74703400947D8C313078007E7
:10313C00BAB7130720032384E702238607022388E8
:10314C000702B85B13674700B8DB0547F8DB3707A6
:10315C00070013071702B8DB1537EFF0BFB6B7E758
:10316C0000E03707004023A2E7103707008023A2B6
:10317C00E7106FD06FA1B7E700E0B704008023A27F
:10318C0097180F1000003707004023A2E7180F1004
:10319C0000003744034091473CD81C4013878400FF
:1031AC0013054006D98F1CC0EFD07FE83C58DD14C6
:1031BC00ED9B3CD81C40E58F1CC0EFF0BFA955BF60
:1031CC00411126C4B74401408545138504C022C66D
:1031DC00EFD07FD585476315F5062A848545138581
:1031EC0004C0EFD0DFD5B7640D2083C704D1639E34
:1031FC00870037670D208347A7D08946850793F74B
:10320C00F70F63E4F6042305F7D003C704D18D4709
:10321C006318F702B7E700E03707004023A2E7186E
:10322C000F1000003707008023A2E7180F100000D2
:10323C000145693D0545EFF04F860145EFF0DFB3E1
:10324C003244A244410173002030230507D0B7E774
:10325C0000E03707004023A2E7180F1000003707E3
:10326C00008023A2E7180F100000014585350545A5
:10327C00EFF0AF820145EFF03FB041BF374503405F
:10328C00EFF07FB3730020302A871375050721E117
:10329C009307F7FF13174760635E070093F7F70771
:1032AC00374703401307070C9607BA971307000616
:1032BC0098B38280374703401307070D9607BA97D8
:1032CC0098331367070698B3414798A78280130574
:1032DC00F00F82802A871375050715E99307F7FF0E
:1032EC0013174760635F070093F7F70737470340EF
:1032FC0096071307070CBA9798331367070898B308
:10330C0082803747034096071307070DEDB7130567
:10331C00F00F82802A871375050739E19377F70739
:10332C00B1C39307F7FF131747606355070293F771
:10333C00F7073747034096071307070CBA979C33D8
:10334C009397476063D00702B7870E200547238603
:10335C00E7FA82803747034096071307070DF9BF3A
:10336C001305F00F8280B7470340F85B011122CEA2
:10337C0026CC4ACA4EC852C656C45AC213766700E7
:10338C0089466316D648B78A0E201387CAFA1C23BF
:10339C00B7640D20B7650D20A38EF4D01C333623F3
:1033AC0037640D20238EF5D07E235A2337890D20C8
:1033BC00231BF4D0B7670D20239DD7D0B7660D2003
:1033CC00239CE6D083C9D4D1130609F92301060046
:1033DC002303060093F90906130909F9138ACAFA9B
:1033EC006386090883C7D4D19397476063D40706D3
:1033FC00376A0D2013050AD2EFE0AFF81375F50FFD
:10340C009307F00F630BF508035764D19307F01F74
:10341C001309002063E6E700035964D13349090816
:10342C0083290AD24A861385CAFACE85CA99EFC077
:10343C007FF623203AD383C7D4D19397476063D5C3
:10344C00073A835764D163960734B747034037076D
:10345C00A000A1A803C7D4D193071002631FF702E1
:10346C0003C7C5D18547639AE702F1B703C7C5D136
:10347C00AD451375F70F63EAE50037970A2013077C
:10348C00C7573347E5201843028713070003E304AB
:10349C00E5FA130710036304E51437074000B74738
:1034AC00034023A2E7083707C00023A4E70839AE7E
:1034BC0003D7A7D1B94637690D2021837D17137720
:1034CC00F70F63E6E60AB7960A209386C65A334787
:1034DC00D72018430287B7A70A2093878786232013
:1034EC00F9D29C2325A8B7970A2093874767B8235E
:1034FC002320F9D2BC33A207D98F0DA083D7A7D133
:10350C00094793F7F70F638DE706636BF704A5E79D
:10351C00938701892320F9D29C238149035764D1D5
:10352C0063F4E700231BF4D0035764D19307F01F17
:10353C00130A002063E6E700035A64D1334A0A08F1
:10354C00032B09D252861385CAFADA85529BEFC037
:10355C007FE4232069D39307F00FE380F9F4E1BDF6
:10356C000D476384E7021307E00E6385E70281478A
:10357C009309F00F65B7B7970A209387C76485B78F
:10358C00B7970A209387C76299BFB7970A2093878A
:10359C004761B1B7B7970A209387076089B7B7A778
:1035AC000A209387C78725BFB7970A209387875E22
:1035BC003DBF83D7A7D105472301E900A301F9003B
:1035CC009DBDB7670D2083C757D12300FA00035761
:1035DC0064D18547E3F1E7E6231BF4D0A9BD83D77B
:1035EC00A7D1054778A27CB2B9B583D6A7D13767E6
:1035FC000D2093F6F60FA30AD7D0834657D185CA70
:10360C00B7960A2083C69667034657D16381C602D4
:10361C00A30AD7D0034757D183D7A7D193F7F70F76
:10362C00E30DF7E623000900A3000900BDB503462E
:10363C0057D1B7660D2005E2A38906D0034757D1B1
:10364C0083D7A7D193F7F70FE307F7DE2300090021
:10365C00A3000900CDB30546A389C6D0C5B703C7DF
:10366C00D4D17D8B21E303D7A7D185461377F70FF0
:10367C00631BD70037670D20834747D193F7E70FBC
:10368C00230AF7D04DBB03D7A7D1930600031377BA
:10369C00F70FE302D7DA83D7A7D11307100393F7F9
:1036AC00F70FD1B303C7D4D109467D8BE317C7DE1F
:1036BC0083D7A7D193F7F70FE39107DE03D586D114
:1036CC001375F50FEFF05FBCBDB303C7D4D17D8B81
:1036DC0005E303D7A7D1930600031377F70FE31C79
:1036EC00D7FAB7670D2083C737D1E39607D475B3E4
:1036FC0003C7D4D109467D8BE31FC7D283D7A7D18B
:10370C0093F7F70FE39907D203D586D11375F50F0D
:10371C00EFF05FBC0DB3374703408347170C93E7BB
:10372C000702A300F70CEFD0BFA531B323000A00AA
:10373C0079BD83C7D4D123960AFA0947FD8B639DC3
:10374C00E70203D586D11375F50FEFF0BFBC8347A5
:10375C001900034709008E070A07D98F03470A008F
:10376C00D98F035764D12300FA00894763F4E7002B
:10377C00231BF4D0AA89C5B383C7D4D1FD8BE1FB3D
:10378C00B7670D2083C747D1858BF1D32300EA009F
:10379C007DBF035764D19307002063E6E70083578E
:1037AC0064D1B3C70708035764D11D8F334707088B
:1037BC00231BE4D037470340939757292322F7085C
:1037CC0083274708939777292322F708B7470340A5
:1037DC000947F8DB7244E2445249C249324AA24AD0
:1037EC00124B056173002030835764D1E39F07C4EB
:1037FC00B74703409387070837072000D8C3D8433F
:10380C0013177729D8C33707A00098C7C1B7937689
:10381C0047009DCE114737840D20F8DB130404F9C3
:10382C00382019CF2830B7450340EFF01F8423010F
:10383C000400B747034023A2070823A4070859BF75
:10384C00782065DB78302390E70423030400D5B798
:10385C0093761700C1D2056693568700718F9D8AA7
:10386C0045CF89CE0547E397E6F603C7570C136798
:10387C000704A382E70CEFD0DFE2A9BFB7640D20E9
:10388C0003D764D111EB3707200023A2E7083707D1
:10389C00A00023A4E7083DBF37670D208346C7D19E
:1038AC0019476396E60603D764D19307F01F1304F8
:1038BC00002063E6E70003D464D133440408B769FD
:1038CC000D2003A909D237850E202286CA8513053F
:1038DC00C5FAEFC03FAC83D764D137470340130719
:1038EC000708818FB3C70708239BF4D05C43229948
:1038FC0023A029D3C183FD8B8507C207C18F939762
:10390C0057295CC35C43939777295CC3E1B53707B0
:10391C00200023A2E7087DBD85C60547E39CE6EAA7
:10392C0037870D201307C7FA23AEE70C4147238CCA
:10393C00E70C03C7570D13670704A38AE70C59BD9F
:10394C003707A00023A4E70883A78708694793F7E4
:10395C00F77FE391E7E837870E201307C7FA376440
:10396C000D203C233433034724D1B7640D20631658
:10397C00F70003C714D1E30FD7E437070C20130764
:10398C0007383CA334B3238EF18003C5C1812309CE
:10399C00F4D0A388D4D0EFE0AFD683C514D10345BF
:1039AC0024D1EFE0AFE83DB53288AA882E87CDEA66
:1039BC0063FFC50EC167636AF618B7070001B3371A
:1039CC00F600B307F040E19BE1073353F60097662E
:1039DC000000938666219A96942213030002B697F0
:1039EC00B306F340630BF3003397D500B357F500E0
:1039FC003318D6005D8FB318D50013560801335514
:103A0C00C702B346080893D708013377C702B385BA
:103A1C00A6024207D98F63FAB700C2971307F5FFC6
:103A2C0063E4070163E8B7303A858D8F33D7C7025B
:103A3C00B3C80808B3F7C702B386E602C207B3E8F7
:103A4C00F80063FBD800C2989307F7FF63E5080101
:103A5C00791763E3D8003E874205598D81458280F2
:103A6C0063F5D500814501458280C16763E5F61891
:103A7C00B7070001B3B7F600B307F040E19BE107CD
:103A8C0033D8F60017670000130707164297182360
:103A9C00930800023E973388E8406392E81863ED80
:103AAC00B6263335C500134515008145828045C6C1
:103ABC00C167637BF62413370610134717000E07F4
:103ACC00B356E6009767000093870712B6979C23BE
:103ADC0093060002BA97B38EF640639DF608B3873F
:103AEC00C5408545935606013346060833D5D702A3
:103AFC0013D70801B3F7D7023303C502C207D98F16
:103B0C0063FA6700C2971307F5FF63E4070163E0EC
:103B1C0067223A85B387674033D7D702B3C8080802
:103B2C00B3F7D7023306C702C207B3E8F80063FB4A
:103B3C00C800C2989307F7FF63E50801791763E3A0
:103B4C00C8003E874205598D82809337061093C773
:103B5C0017008E079DBD8146976700009387C708A5
:103B6C00B6979C23014793060002BA97B38EF64092
:103B7C00E387F6F63318D60133D3F50093560801D4
:103B8C00335ED302B395D501B357F500CD8F3346D1
:103B9C00080813D70701B318D5013373D302B30543
:103BAC00C603420333676700637BB7004297130574
:103BBC00FEFF636A07176378B716791E42970D8F5D
:103BCC003355D702B3C707083377D7023303A6029E
:103BDC004207D98F63FB6700C2971307F5FF63E0B9
:103BEC00071563FE67127915C29793150E01B387FB
:103BFC006740C98DE5BD93B7061093C717008E07B4
:103C0C0033D8F60017670000130707FE42971823F6
:103C1C00930800023E973388E840E382E8E8335E7D
:103C2C00E600B3960601336EDE00B3D8E500935E72
:103C3C000E01B3D7D803B39505013357E5004D8F6B
:103C4C0033430E089356070133160601B3F8D80315
:103C5C00B305F302C208B3E6160163FBB600F29695
:103C6C009388F7FF63E3C60D63F1B60CF917F29670
:103C7C008D8EB3D5D60333470708B3F6D603B308F6
:103C8C00B302C206558F637B170172979386F5FFBB
:103C9C006369C70963771709F9157297C207C16E73
:103CAC00CD8F9386FEFFB3F5D70013D30701F18EAA
:103CBC004182338ED50233071741B306D302935892
:103CCC000E01B385C502B695C6953303C30263F3E3
:103CDC00D500769393D605019A966363D702630554
:103CEC00D7003E8581458280C166FD1633F7D5002D
:103CFC004207337EDE00331505017297E373E5FE50
:103D0C001385F7FF81458280B70700016377F602C0
:103D1C009356060141477DB38145054582803A851E
:103D2C00E9B5B685A5BF2A8E59BDC68791B7791559
:103D3C00C297CDB37915C297CDB993568601614719
:103D4C0051B3B7071000FD17B3F8B70033F8D7001D
:103D5C0013DE460193D745018E081353D601135732
:103D6C00D5010E0893F7F77F137EFE7FFD81FD8250
:103D7C003367170133680301931E350013133600A4
:103D8C00B388C7416388D51663501011630B0E1EA0
:103D9C009306F07F638DD754930680030546131862
:103DAC00782963C71603FD4663CB164193060002C0
:103DBC00B38616413316D80033551301B316D3000E
:103DCC00498EB336D000B3581801558E33071741BE
:103DDC003386CE40B3B6CE00158FB7068000337550
:103DEC00D70063050524FD16758F630F0726931600
:103DFC000760E11613050002B308D540B35816014D
:103E0C003317D700B3E8E8003316D60063C1F63297
:103E1C009D8E8506158DB317A6003357D600B33784
:103E2C00F000D98F3395A8003366F50033D7D8004E
:103E3C0081479376760081CE9376F60011456388A0
:103E4C00A6009306460033B6C60032973686B706F0
:103E5C008000F98E6382062685079306F07F638ABD
:103E6C00D71A0D829318D70113189700B3E8C8001E
:103E7C001358C80093F7F77FD207B3E70701FE0585
:103E8C00CD8F4685BE85828063800812B308FE40C4
:103E9C00639B0730B367D701638407289387F8FFC8
:103EAC006382074E9305F07F638CB84493058003BF
:103EBC00054663C8F502BE88FD4763C617479307DE
:103ECC000002B38717413316F700B3D51E01B39721
:103EDC00FE004D8EB337F000B35817015D8E3308DA
:103EEC0018413306C3403333C30033076840F287AD
:103EFC00B685E5B56351101563110E10B3666800F5
:103F0C00638306229386F8FF638A063A1306F07FD2
:103F1C006386C8481305800305466349D502B688F5
:103F2C00FD4663D01633938608FE13060002B35683
:103F3C00D800638AC80013060004330616413316F2
:103F4C00C8003363C30033366000558EB306D60108
:103F5C0033B5C6002A973686B7068000F98EF9C6A7
:103F6C0085079306F07F6386D70A93561600058A59
:103F7C001315F701D18E131777493366D5000583D6
:103F8C004DBDB36668006380061A9386F8FF63859F
:103F9C0006341306F07F638AC814130580030546A4
:103FAC00E348D5E2B68801B59388170093F8E87F0B
:103FBC006394081C336ED701B36868006396072EB0
:103FCC0063050E3A6386083E33866E4033B5CE00E9
:103FDC00330E0741330EAE40370580003375AE000B
:103FEC00630E0542B30ED3413308E8403333D3019B
:103FFC00768633076840B6852DBD9306F07F6386C1
:10400C00D70E93068003054613187829E3DA16F1C8
:10401C0035BF9307F07F0148D207B3E70701FE05D0
:10402C008148CD8F4685BE85828085471375760085
:10403C00E31405E03DAA63800810B308FE406394C6
:10404C00071AB367D701638F07369386F8FF638728
:10405C0006269307F07F638FF82A130680038547A3
:10406C006342D61CB68859AA931806607D45938680
:10407C008801E351D5D8E118B318160163CCF61AB0
:10408C003386F64093061600635BD53A0516930704
:10409C00000233D6C800638BF60093070004958F9B
:1040AC00B398F800B3381001336616011375760017
:1040BC008147E31305D875A8935636009318D7019A
:1040CC001306F07FB3E8D800135837006388C70293
:1040DC00320893F7F77F1358C800D207B3E70701EC
:1040EC00FE05CD8F4685BE8582800E059358350022
:1040FC009317D701B3E8F80013583700B3E8080159
:10410C00E38908F09307F07F370808008145D20750
:10411C00B3E70701FE058148CD8F4685BE858280B9
:10412C009A8E4287B68593D63E00C68741BF958F3F
:10413C0013977849FDB99388170093F6E87F639439
:10414C000612B366D7016394072063830628B3660F
:10415C0068006388062876933A98B336D301330700
:10416C00D80037058000798D1A8601C5854713174D
:10417C007749B28EBE8845BF33866E40B3B8CE0049
:10418C003305074133051541B7088000B378150195
:10419C0063910810B368A6002A87E39808C4814588
:1041AC0081470148D1B99307F07F630BFE14930745
:1041BC008003054613177729E3D017D11DB39386D7
:1041CC0008FE13060002B356D800638AC800130613
:1041DC000004330616413316C8003363C30033366C
:1041EC006000558EF5B69307F07F6305FE129306BB
:1041FC00800385471317772963C61603FD4763CBE6
:10420C00171F93060002B3861641B317D70033D697
:10421C001E01B396DE00D18FB336D000B358170110
:10422C00D58F46983E93B337F300338707011A8630
:10423C00F2871DB313987849958FF60813583800F8
:10424C0041BD93060002B38616413316D800335590
:10425C001301B316D300498EB336D000B3581801EE
:10426C00558E4697E5B19307F07FE384F8DA3385F2
:10427C006E00B3070701B336D501B69705811396C7
:10428C00F701498E1D8913D71700C687E31605BAA7
:10429C00CDB5B30ED3413308E8403333D301768622
:1042AC0033076840B68591B663110E12639E0816EB
:1042BC0081459307F07F370808007DBE76933A98C6
:1042CC00B336D3013307D800B7078000F98F1A86AD
:1042DC00E38D07D4894751B933836E4033080741C6
:1042EC00B3B66E001A863307D8408547FDB40E0569
:1042FC000D819318D701B368150113583700FDBB16
:10430C000E069317D8010D82B368F60013583800C7
:10431C00B685EDB30E069317D8010D82B368F6007F
:10432C0013583800E1BB938708FE13060002B357FD
:10433C00F700638AC80013060004330616413317CE
:10434C00C700B3EEEE003336D0015D8E59BEF9D204
:10435C0033636800E31803DA0E050D819317D70158
:10436C00B368F5001358370051BBE38A08E2131702
:10437C0036009318D8010D83B3E8E80013583800C1
:10438C00B685B9B3B30ED3413308E8403333D30108
:10439C00768633076840B685854781B49317350018
:1043AC009318D7018D83B3E8F80013583700B9B3CD
:1043BC00931635009318D7018D82B3E8D8001358A3
:1043CC00370039B39A8E4287B9BBE38708F81DBB17
:1043DC000E061317D8010D82B368E6001358380087
:1043EC00C5B90E050D819316D701B368D5001358C6
:1043FC003700F9B9938608FE93070002B356D7002D
:10440C00638AF80093070004B3871741B317F700CA
:10441C00B3EEFE00B337D001D58F29B5B368C60112
:10442C007287E39808D4A5BB931736009318D8016C
:10443C008D83B3E8F80013583800B685C1B1130565
:10444C000002158D8147F1BA411113D7450193979D
:10445C00C50022C626C41377F77FB183FD816302A2
:10446C0007101308F07F630C07139358D5018E07C0
:10447C00B3E7F800131E35000143130517C0014FB5
:10448C009398772993D746011397C60093F7F77F34
:10449C003183FD82D9CB1308F07F638D0707131886
:1044AC003700938717C01357D60133670701931E44
:1044BC0036001D8D814F131777293D4633C8D50023
:1044CC00636E6616175600001306066EB347C320BC
:1044DC009C43B29782879D8E13068003635BD63E06
:1044EC008147814601463244D207D58F7E08B3E717
:1044FC000701A2443285BE85410182809307F07F7B
:10450C0081460146CDB701489307F07FB7060800F6
:10451C000146D1BFB36EC7001305158063960E100C
:10452C00136323000147894F49BFB36EC7006388EB
:10453C000E0E630D073493170760938F57FF754862
:10454C00938E87FF3308F8413317D7013358060190
:10455C003367E800B31ED601AA971385373F814F06
:10456C00A9BFB3E8A7006386080C638207301398D1
:10457C000760130758FFF548130E88FFB388E8400F
:10458C00B397C701B3581501B3E8F800331EC50142
:10459C001307D0C0330507410143014FE5B5B3E81C
:1045AC00A70063970806014E21431305F07F094FBE
:1045BC00D1BD7E8F89476309FF3C8D47E305FFF42E
:1045CC0085473688E30EFFF09307F53F6358F020DC
:1045DC0093F67E006390063AB7060001F98E89C601
:1045EC0093070540131787499306E07FE3C8F6F05D
:1045FC0093DE3E001316D701931697003366D6014F
:10460C00B18293F7F77FC5B5AE864687F28E5DB75C
:10461C002A8EBE8831431305F07F0D4FA5B5136369
:10462C0013000147854F51BD13633300B28E8D4F7C
:10463C0069B5014E11430145054FA9B5636F1721AB
:10464C00638BE820728F7D15C687014E9316870009
:10465C0093D8060133D7170313D68E01558E939535
:10466C008E003343060893560F01B3F71703B30EAE
:10467C00E302C207D58F63F8D701B2979306F7FF11
:10468C0063F4C7243687B387D741B3DE1703B34629
:10469C000F08B3F717033304D303C207DD8E63F897
:1046AC008600B2969387FEFF63FBC620BE8E420740
:1046BC00C1643367D701138FF4FFB37EE7019352C4
:1046CC00070193DF050133FFE501B303DF03818E9F
:1046DC00B38EDF0393D703013384E203A29EF697D4
:1046EC00B382F20363F38700A69241647D1493DED8
:1046FC000701E18FC207B3F38300969E9E9763EA8E
:10470C00D6136386D613B307FE40B386D641333E29
:10471C00FE00B386C6416301D624B3DE160313DE56
:10472C000701B3F61603B302D303C206B366DE0069
:10473C0063FB5600B296138EFEFF63E5C62463F34B
:10474C005624F91EB296B386564033DE1603B3C711
:10475C000708B3F616033303C303C206D58F63FBF6
:10476C006700B2979306FEFF63ECC72063FA6720DD
:10477C00791EB297C20EB3EECE0193D20E01B3C620
:10478C000E08338EE203B3876740B388DF02338FA2
:10479C00E603F29893560F01C696B38F5F0263F44B
:1047AC00C601C168C69F41637D1393D80601B3F659
:1047BC006600C206337F6F00FE98FA9663F6170FF9
:1047CC00B297138EFEFF3E8363E6C71663E4171D94
:1047DC00638D171DF28E93EE1E00FDB38546E39C90
:1047EC0007CE1305E541B397AE00B337F000331590
:1047FC00A700C98FB3DEDE00B3EEFE0093F77E0098
:10480C003357D70081CF93F7FE0091466388D700CA
:10481C0093874E00B3BED7017697BE8EB705800046
:10482C00F98D854781460146E39F05CAD5A8E37CEF
:10483C00FEECB302BE00B3B3C201338EC300F296DA
:10484C001304F7FF168E6376D60663EFD60F638BD1
:10485C00DE0E22874DBDE367DEDF93561E00139FED
:10486C00F80193D71800336FDF007E0EC5B3931891
:10487C00056071431387580113880802E35DE3CE8A
:10488C00938788FFB318F500014E19B3131806600F
:10489C00F14E930F580193070802E3D2FECB611837
:1048AC00814E331706014DB9E39717F3E38E06D00B
:1048BC0001BFE310D6FAE38A03F82287A9B5E3F720
:1048CC0086DEF91EB296E5B3E3FED7DB7917B29715
:1048DC005DBB7D46E357D6F00556B307F64013068D
:1048EC000002B357F7006388C6001305E54333177E
:1048FC00A700B3EEEE00B33ED001B3EEFE0013F70B
:10490C007E00814615C393F7FE00914601476389EB
:10491C00D70093874E00B3BED7013337D001BE8E7C
:10492C0093169700B182760793DE3E0033E6EE00D5
:10493C00814755BEF28EE31013EBE387B6C893EEB6
:10494C001E0059B1E3F7F2F0AE92B3B3B200B293DA
:10495C007917168E9E9645BB930620C09307F53F9C
:10496C00FD5EE34DD5E693864E00B3BED601769739
:10497C00B68E9DB193F6FE001146E38FC6C4E5B723
:10498C00368ECDBBF28EC1B336889307F07F81464D
:10499C00014691BE139E15003333BE0032933E93F5
:1049AC00F91EF285E30B13F93DB5E3E5D5FEF28E66
:1049BC00E397B6F811B913D74501B7071000FD17E7
:1049CC0013D846011377F77F1303F07F33FEB7003C
:1049DC00AA88F58FFD811378F87FFD820545630A5F
:1049EC00670063076800631407016300FE0282809E
:1049FC008280E31EE8FEB367FE00D18FB3E7170198
:104A0C00FDF7958D3335B0008280E392C8FE638844
:104A1C00D50071FF336E1E013335C0018280014514
:104A2C00828013D84501B7071000FD1793D84601B3
:104A3C001378F87F130EF07F33F3B7002A87AA8E12
:104A4C00FD81328FF58F93F8F87F13D5F601630C47
:104A5C00C803638DC801631508043367E300639EC4
:104A6C0008025D8E25C235EB1DC582805D8E25E664
:104A7C00631608003363E300E30803FE639BA500A1
:104A8C0099C92E8582803363E30063160304638E19
:104A9C0008030545F9D97D5582806DF379F5E5BF9D
:104AAC00E38908FEE397A5FEE3C508FFE34A18FD7A
:104ABC00E3E167FEE316F3FCE36DDFFD0145E3E1A3
:104ACC00EEFD8280014571F78280D18F89E7E392F8
:104ADC00A5FC0145828079558280E38BA5FC55BFEE
:104AEC0013D84501B7071000FD1793D8460113786A
:104AFC00F87F1303F07F33FEB7002A87AA8EFD815F
:104B0C00328FF58F93F8F87F13D5F601630D680299
:104B1C00638D6800631308043367EE006393080623
:104B2C005D8E3DC22DEB11CD82805D8E0DE6631640
:104B3C000800336EEE00E3080EFE6381A504054504
:104B4C00E5D57D558280336EEE0063160E00E3983A
:104B5C0008FFD18F8DCF09458280E38208FEE39058
:104B6C00A5FEE3CE08FD634B1801E3EAC7FD63170E
:104B7C00FE00E366DFFD0145E3F8EEFBF9D12E857F
:104B8C00828045FF55F175BF014555FB8280E39846
:104B9C00A5FA01458280E38AA5FC55B7411193D74C
:104BAC004501939EC50022C626C44AC24EC093F747
:104BBC00F77F93DECE00FD81638907141307F07F26
:104BCC006382E7188E0E1357D501B36ED70193127B
:104BDC003500138E17C081488144939E7E2993D74C
:104BEC0046011397C60093F7F77F32841353C7001F
:104BFC0093D3F601F9CB1305F07F6386A706131741
:104C0C0033001355D601498F938617C0338FC601D5
:104C1C00131377292947131436000145130E1F006F
:104C2C006346171733C87500C28F894563CF1505C6
:104C3C001386F8FF854863EBC818630FB5108547DA
:104C4C007E886316F5068147814601473244D207B8
:104C5C00D58F7E08B3E70701A244124982493A85F1
:104C6C00BE85410182803366C300130FFE7F630152
:104C7C00061033C875009316B02893E838002947FE
:104C8C00C28F369E634417410D4533161029137796
:104C9C00065305C389476381F40C8D476381F41275
:104CAC0026858547768316847E88E30EF5F8728F09
:104CBC00BDAC93750624DDE51376860863080610F3
:104CCC009E8F9A8EA282AA84F1B73367C30061CFFC
:104CDC00630F0330131F036013075FFF75459307C2
:104CEC008FFF198D3355A6003317F3003363E5009E
:104CFC003314F600330FEE41130FDFC02947014583
:104D0C00130E1F00E35017F351A0B3E2AE006387FC
:104D1C00020863800E2C13980E60930758FF75479A
:104D2C00930288FF1D8FB39E5E003357E500B36E70
:104D3C00D701B3125500130ED0C0330E0E4181486B
:104D4C00814471BDB3E2AE0063940204814EA1486C
:104D5C00130EF07F894461B57E889307F07F8146FE
:104D6C000147EDB501489307F07FB7060800F9BD80
:104D7C001317B02893E82800A9473A9E63DC17293B
:104D8C000144B94709452D476380E730AE8F19B709
:104D9C00AA82B148130EF07F8D4491B5814E914893
:104DAC00014E85442DBD728F93E8180029470143AD
:104DBC0001440545130E1F00E35617E7C1BF014818
:104DCC009307F07FB7060800014749B5C165938486
:104DDC00F5FFB3F7920013D9020193580401E18C4B
:104DEC00338797023306990213550701B386F802ED
:104DFC00B2963695B30F19036373C500AE9F416429
:104E0C001306F4FFB375C500B376C300718F9353CB
:104E1C000301C205B382D702BA9541813307D90287
:104E2C0013D60201B387F302BA973E96B307790201
:104E3C006373E600A297C1691383F9FF33776600A9
:104E4C0013D40E01B3F26200B3FE6E004207169744
:104E5C003389D40341823E963A95B382D803935753
:104E6C000901330394029A929697B388880263F3EC
:104E7C006700CE98C1691383F9FFB3F46700C204CD
:104E8C0033736900C183C697B382D603B3886400B9
:104E9C00B306D40213D30201B38ED303B69E9A9EEB
:104EAC003383830263F3DE004E93C163FD13B3F6C9
:104EBC007E00C206B3F272007E9596963696333714
:104ECC00E5003297AA98BA9733B5A8003E95B33649
:104EDC00D6003336C700D18E33B7E70013D60E0198
:104EEC00B337F500B2965D8F36971A979397980063
:104EFC00260793567501CD8F3363D700B337F00077
:104F0C0013D77801D98F3707000126053377E300D3
:104F1C0033E4A70009CF13571400937714009316AA
:104F2C00F301D98F33E4D70013531300728F130698
:104F3C00FF3F6358C0049377740081CF9377F400DC
:104F4C0011476388E70013074400B33787003E938B
:104F5C003A84B7070001B377F30089C713060F40F3
:104F6C00131383499307E07F63C1C70A9357340037
:104F7C001317D301931693005D8FB1829377F67F4D
:104F8C00F1B1054759EE130FEF413316E4013336F7
:104F9C00C000331FE301B357E4003366E6015D8EB6
:104FAC0093777600B355E30081CF9377F6001147E2
:104FBC006388E7009307460033B6C700B2953E8678
:104FCC00370580006D8D854781460147E31005C884
:104FDC005DA013170560F1489307570113080702EA
:104FEC00E3DFF8D261178142B31EE500A9B3931732
:104FFC000660F14613875701138F0702E3D0E6CE04
:10500C00E11701443313F600F5B19307F07F8146A5
:10501C0001472DB933C87500C28F014301440945BE
:10502C0029B1118F93078003E3CFE7C0FD47E3DC81
:10503C00E7F48557918F93060002B357F30063088A
:10504C00D700130FEF43331FE3013364E40133360E
:10505C0080005D8E1377760081461DC39377F60032
:10506C00114781456389E7009307460033B6C700B3
:10507C00B335C0003E86939695001397D501B18247
:10508C000D82518F8147D9B632831DB93D47639745
:10509C00E8000148B706080001474DBE1A86AD4727
:1050AC000D45D5B1B7071000FD1733FEB70033F827
:1050BC00D70013D3460193D745010E0E1357D501D4
:1050CC000E089358D6011373F37F930EF07F33675A
:1050DC00C70193F7F77FFD81131F3500FD82B3E8FD
:1050EC000801131E3600630BD31913C81600B386C0
:1050FC00674063800511635CD0546309031C6380B3
:10510C00D755130580030546939878296346D50235
:10511C007D46634BD63C13050002158D3396A800D3
:10512C003358DE003315AE00336606013335A0006C
:10513C00B3D6D800498E158F3306CF40333FCF00FE
:10514C003307E741B70680003375D700630E05229D
:10515C00FD16758F63050728131507606115130875
:10516C000002B306A840B356D6003317A700D98E59
:10517C003316A6006340F5301D8D05053308A84095
:10518C00B31706013357A600B337F000D98F339805
:10519C0006013366F80033D7A60081479376760074
:1051AC0081CE9376F60011456388A60093064600DF
:1051BC0033B6C60032973686B7068000F98E638701
:1051CC00062685079306F07F6382D71A0D82931605
:1051DC00D70193189700D18E93D8C80093F7F77F17
:1051EC008589D207B3E71701FE05CD8F3685BE85BD
:1051FC0082806359D05A6311031633E6C8016307E2
:10520C0006261386F6FF630A063E6387D647930687
:10521C008003054563C9C602B2867D46635CD634FD
:10522C00138606FE1305000233D6C800638AA60057
:10523C0013050004B306D540B396D800336EDE00D8
:10524C003335C001518D3306E5013335A6002A975D
:10525C00B7068000F98E6389061285079306F07FE6
:10526C006386D71093561600058A1315F701D18E55
:10527C00131777493366D50005830DB733E8C8019A
:10528C00938E17806315080613C8160063840507F0
:10529C0063810E106384071C0E069397D8010D8250
:1052AC00B366F60093D83800C285B3E61601DDCE9E
:1052BC009307F07FB70808008145D207B3E71701C1
:1052CC00FE058146CD8F3685BE85828033E6C801CA
:1052DC00630E06181388F6FF63080834638DD63303
:1052EC00930680030546E3C906E5C28615B53688E4
:1052FC00E390D5FA63840E18639507269306F07F26
:10530C00B367E7016386073E1385F6FF6307052E37
:10531C009307F07F6387F62493068003854763C564
:10532C00A602FD4763CFA74093060002898EB317F0
:10533C00D7003356AF00B316DF00D18FB336D00091
:10534C003355A700D58FAA983E9EB337FE003387FE
:10535C00170172869A87EDBD638FD72B13068003D6
:10536C00054593987829E35AD6EAF1BD9307F07F67
:10537C0081488589D207B3E71701FE058146CD8F99
:10538C003685BE858280854793767600E39B06E062
:10539C0025A29386170093F6E67F63920612B3E676
:1053AC00C8013363E70163900724630E03306388FD
:1053BC0006323306CF41B336CF0033051741158D76
:1053CC00B7068000E98E638A063A3306EE41B3884D
:1053DC00E840333ECE003387C841C285C1B3931633
:1053EC0006607D4813858601E35BA8D6E116B316EB
:1053FC00D6006343F51A3306F54013051600635DBA
:10540C00A83805169307000233D6C600630AF500C8
:10541C0093070004898FB396F600B336D000558EEF
:10542C00937676008147E39E06D679A00D8293167B
:10543C00D7011305F07FD18E93583700E387A7E689
:10544C00B20893F7F77F93D8C8008589D207B3E7E2
:10545C001701FE05CD8F3685BE8582809306F07FC1
:10546C00B367E701D5E74687728FC28513563F00B5
:10547C00B68775BF898F139776490DB313881700BC
:10548C009376E87F63910612B366E7016391071E7A
:10549C00638E0626B3E6C801638306287A9E3336EC
:1054AC00EE01BA983387C800B7068000F98E728671
:1054BC0081C6854713177749328FBE8645BF3306A1
:1054CC00CF41B336CF0033051741158DB706800099
:1054DC00E98E63900610B366A6002A87E39C06C685
:1054EC00814581478148F5B9138506FE13060002F4
:1054FC0033D5A800638AC60013060004B306D64051
:10550C00B396D800336EDE003336C001498E2DB110
:10551C001385F6FF630E05189307F07F6389F62059
:10552C0093078003C28563C2A714FD4763CFA714FA
:10553C0093070002898F3316F700B356AF00B317E9
:10554C00FF00558EB337F0003355A7005D8EB3883E
:10555C00A8403306CE40333ECE003387C8419A87ED
:10556C00D5B60E069397D8010D82B366F60093D884
:10557C00380025BB13060002158E3395C80033582E
:10558C00DE003316CE00336505013336C000B3D6CA
:10559C00D800518D369745B993987649898FF60680
:1055AC0093D8380071BD9307F07FE301F8DCB306A4
:1055BC00CF0133B6E601B3071701B2978582139674
:1055CC00F701558E9D8A13D71700C287E39B06BC43
:1055DC00E5B53306EE41B388E840333ECE00338761
:1055EC00C841C28585BE63180310639E06188145A9
:1055FC009307F07FB7080800EDB67A9EBA98333F50
:10560C00EE013387E801B7078000F98F7286E38CCF
:10561C0007D6894781B90E05935635009317D701E4
:10562C00DD8E9358370051B1330ECF41B30817417B
:10563C00333FCF0172863387E841854721B60E058B
:10564C009316D7010D81C98E93583700B9B9E382EF
:10565C0006D43305F340AA86E38407E0930780035E
:10566C00C28513177729E3D2A7EC0546DDB5EDCE3D
:10567C0033EEC801E31E0EC20E050D819317D70140
:10568C00B366F500935837000DB1930705FE9306EA
:10569C000002B357F7006309D50093060004898E06
:1056AC003317D700336FEF003336E0015D8E55B5FD
:1056BC003306EE41B388E840333ECE003387C84111
:1056CC00C285854741B4E38D06E00E069396D8015A
:1056DC0013573600D98E93D83800C28595B30E0572
:1056EC009316D70113563500D18E9358370089BBCA
:1056FC004687728FA5BBE39D06BA0E059316D7019C
:10570C0093573500DD8E9358370045B60E06139728
:10571C00D8010D82B366E60093D8380015B30E0598
:10572C000D819316D701C98E9358370011BB0E0605
:10573C009396D80193573600DD8E93D83800C285E6
:10574C00ADB6930605FE93070002B356D700630966
:10575C00F50093070004898FB317F700336FFF0030
:10576C00B337E001D58FCDB60E069396D80193577B
:10577C003600DD8E93D838000DBEB366A6002A879E
:10578C00E39C06D2B1BB0E069396D8010D82D18E46
:10579C0093D83800C28511BE130800023308A84004
:1057AC008147EDB2E38C06CC3305F34099E3AA862E
:1057BC0081BE93068003854713177729E3D3A6B6DA
:1057CC0061B613D74501B7071000FD1713D8460172
:1057DC001377F77F9308F07FFD8D1378F87FF58FA3
:1057EC00630C17011307F07F01456303E800828007
:1057FC00D18F3335F0008280C98D0545E5D5828087
:10580C0093D745011397C50093F7F77F9306E03FB5
:10581C003183FD8163DBF6009306D04163D9F6003A
:10582C00370500807D152E95828001458280930678
:10583C0030439D8E7D4613174729635DD600930632
:10584C003041B387F6403357F7003305E040F9FD9C
:10585C003A8582809387D7BE3317F7003355D5002E
:10586C00498FE5B721C13307A0409307E041336767
:10587C00E50AA94613160760918F7D8193F7F77F90
:10588C0063CDC602AD46918EB356D700B206B18237
:10589C00D2075506D58F7E05C98F3317C7003A85B9
:1058AC00BE858280814781460145D207D58F7E0512
:1058BC00C98F01473A85BE8582805516B316C7003D
:1058CC00B206B182D207D58F7E05C98F01473A85C2
:1058DC00BE8582800DC99307E04113170560A94668
:1058EC00998F93F7F77F63C6E602AD46998EB35650
:1058FC00D5005507B2063315E500D20713D7C600FD
:10590C00D98FBE85828081470147D207D98FBE854A
:10591C00828055173317E50032073183D207D98FB0
:10592C000145BE85828013567501370780007D17AF
:10593C0093D675011376F60F1308F00FB378A70002
:10594C009357F5016D8F13F5F60FFD816305060373
:10595C00630A050105EA09E939C3639E0804A1C974
:10596C002E85828039E719E2E38B08FE6399B70034
:10597C009DCF3E858280639E08026305C502054566
:10598C009DE782806DDDE39CB7FEE34AC5FEE341F3
:10599C00A6FEE36617FF0145E3ECE8FC8280E3908A
:1059AC0008FE828019E7E39CB7FC014582807D5597
:1059BC00828079558280E38EB7FCD1B793577501FD
:1059CC0093F7F70F938617001317950093F6E60FCE
:1059DC0025837D8189CE9387073893563700D2076C
:1059EC00D58F7E05C98F76073A85BE8582808DEF6F
:1059FC0029CFA9471316076063CCC706AD46918E15
:105A0C0093075601B356D7003317F7009307903816
:105A1C00918FB20693F7F77FB182D207D58F7E05AF
:105A2C00C98FBE853A85828015CB93563700930774
:105A3C00F07F93963629B206B182D207D58F7E05B8
:105A4C00C98F76073A85BE85828081478146D20709
:105A5C00D58F7E05C98FBE853A8582809307F07FEE
:105A6C008146D207D58F7E05C98FBE853A85828047
:105A7C00930656FFB316D700014749BF411119458C
:105A8C0006C6EF1040150545EF30403D411183A788
:105A9C008182328806C6AA882E87C84736869747E1
:105AAC0000009387672463170800973700009387DB
:105ABC00273D3E88C686974500009385E523112037
:105ACC00753F397132D436D62E863410AA8503A58B
